:10000000D02A0020550100005101000051010000DC
:1000100000000000000000000000000000000000E0
:10002000000000000000000000000000510100007E
:10003000000000000000000051010000510100001C
:10004000510100005101000051010000692400002D
:10005000C51F00008523000051010000A5390000E4
:100060005101000051010000F12A0000510100007F
:100070005101000051010000510100005101000038
:100080005101000051010000510100005101000028
:10009000510100005101000051010000291D000024
:1000A00051010000351E0000510100005101000007
:1000B0000000000010B5064C2378002B07D1054B3B
:1000C000002B02D0044800E000BF0123237010BDC4
:1000D000400100200000000074C40000084B10B56F
:1000E000002B03D00749084800E000BF0748036819
:1000F000002B00D110BD064B002BFBD09847F9E731
:10010000000000004401002074C4000074C400001A
:100110000000000010B5074B9847074B9847074B66
:100120009847074B07489847074B9847074B98470E
:1001300010BDC046ED080000CD5A0000696C0000FB
:100140009171000014850000356C0000055A000014
:10015000FEE700002148224970B5884204D0002300
:10016000204CCA18A24232D300211F4B1F4A93428F
:1001700031D3FF211E4B1F4A8B43936002220C2573
:10018000082430261C4B1D485A62C378FC398B4327
:100190001343C370C378AB432343C370184B987B9E
:1001A000B0430600202030439873987BA843044353
:1001B0009C73987B884302439A738023114A516849
:1001C0000B435360104B9847104B9847FEE7C558B8
:1001D00004331560C5E702C3C9E7C04674C4000014
:1001E000000000204001002040010020CC0A002037
:1001F0000000000000ED00E0FC70004100500041F4
:10020000004800410040004115700000F94A00001C
:1002100070B51F244209C0B20440FF234D1C09D110
:100220001A40D201144BA218D218137802318B4312
:10023000137070BD01251340104ADB019B181E1975
:1002400040363278AA432A4332706208284209D0E5
:100250000F209A1830321378090103401943C9B2AC
:100260001170E6E70F209B1830331A780140824363
:1002700011431970DDE7C04640440041004400418D
:100280001F22430910B5104001290DD0002902D0CA
:10029000022918D010BD0421134ADB01C3189B1892
:1002A0001A788A431A70F5E7C0228140DB01D20533
:1002B0009C180D4AC3189B180422616018780243E9
:1002C0001A70A161E6E70122C0218240DB01C90565
:1002D0005C180549C3185B18042162601878014353
:1002E00019706261D6E7C046404400411F224309AD
:1002F00010401E3A8240012916D0002902D002295E
:1003000020D07047C021DB01C90559184A608021FF
:1003100090B2C905014313481B189962110CC02201
:1003200012060A439A62ECE7C021DB01C90559189D
:100330004A600D4990B201430A481B189962110C9A
:100340000A4AEEE7C021DB01C90559188A608021FD
:1003500090B2C90501430348120C1B189962C021D1
:100360000906DEE70044004100000240000002C030
:100370008023F0B5134A5B02116A85B00B43136208
:10038000114A124B00245A80114B124D0193012344
:10039000114E00932A002300029410493000104FA0
:1003A000B8476A1C2100102330000E4DA8472100D9
:1003B00003200D4B98470D4903200D4B984705B07E
:1003C000F0BDC046000400401E400000000C00408C
:1003D0006C0900205C0100201C0900200040004244
:1003E000C50B0000110C0000ED020000010003002D
:1003F00011020000F8B5634A634B644E5A80012134
:100400002020B047624B0221202098478021614C78
:1004100089032020A04701212120B0475C4B022105
:100420002120984784215C4D89032120A047012188
:100430002220B0472A0004278821C232137889037A
:10044000BB4313702220A04701212320B047504B0B
:100450000121232098478C2123208903A0470121D3
:100460002920B0472A008021C9321378C902BB4332
:1004700013702920A04701212E20B0472A00A02177
:10048000CE321378C902BB4313702E20A047380028
:100490000121B0472A00C021443213783800BB4301
:1004A0001370C902A04701212D20B0472A00E02186
:1004B000CD321378C902BB4313702D20A047012110
:1004C0002820B0472A00A021C83213788903BB43F3
:1004D00013702820A04701212F20B0472A00A42113
:1004E000CF3213788903BB4313702F20A04701211B
:1004F0000520B0472A00A821453213788903BB4361
:1005000013700520A04701212C20B0472A00AC2100
:10051000CC3213788903BB4313702C20A0470121F0
:100520000620B0472A00B021463213788903BB4326
:1005300013700620A04701212B20B0472A00B421C8
:10054000CB3213788903BB4313702B20A0470121C2
:100550000720B0472A00B821473213788903BB43EC
:1005600013700720A04701212A20B047BC21CA35BB
:100570002B788903BB432B702A20A047074B984751
:10058000F8BDC04605400000000C0040ED02000030
:10059000810200001102000000440041990E000099
:1005A0000423024AD1690B43D36170470004004021
:1005B00010B5034B984703490348044B984710BDB7
:1005C000A105000000400041000900205D0F00006F
:1005D00070B58023C0265B00F60573610E4D0221C5
:1005E0000820A8470D4C0E490820A04780239B00F7
:1005F000736102210920A8470A490920A047012167
:100600000B20A8470421084A0B2013788B43137052
:100610000649A04770BDC046ED020000110200006F
:1006200002000800020009004B44004102000B00D8
:100630000423044A116A0B431362034A034B5A8092
:100640007047C0460004004014400000000C004009
:1006500010B5044B98470449044B05489847054B8F
:10066000984710BD31060000000800426D110000DF
:1006700084090020D10500000823044A116A0B43B5
:100680001362034A034B5A807047C046000400407F
:1006900015400000000C004010B50449044C102027
:1006A000A04704491120A04710BDC0460200100019
:1006B000110200000200110013B5074B98470023F8
:1006C000064A0093113206491033064C0648A047EB
:1006D000064B984713BDC046790600005C01002018
:1006E000000C00426D140000A809002099060000CB
:1006F00070B5094C0426220056321378074DB343D7
:100700001370573406491620A84723780549B34388
:1007100023701720A84770BD00440041110200005B
:1007200002001600020017002023054A116A0B433D
:100730001362044B044A5A80044A5A807047C046E8
:1007400000040040000C004017400000134300006C
:1007500010B5044B98470449044B05489847054B8E
:10076000984710BD2907000000140042391100000D
:10077000F8090020F106000010B50449044C3620A9
:10078000A04704493720A04710BDC04603003600EB
:1007900011020000030037008023044A116A0B4352
:1007A0001362034A034B5A807047C046000400405E
:1007B00019400000000C004010B5054B984700227E
:1007C0000449054B05489847054B984710BDC0465E
:1007D00099070000001C0042C11500009C09002080
:1007E0007907000010B500210220034B9847034908
:1007F0000220034B984710BDED02000001000200EB
:10080000110200008023044ADB02116A0B431362C9
:10081000024A034B5A807047000400402140000008
:10082000000C004010B5044B98470449044B0548A0
:100830009847054B984710BD050800000048004246
:10084000A10D000048090020E5070000F8B50221CD
:10085000104F1820104CB847C026802322000425D2
:10086000F6055B045832736113780C49AB4313707F
:1008700018200B4B984702211920B84780239B046E
:100880007361593423780749AB4323701920044B13
:100890009847F8BDED020000004400410600180032
:1008A00011020000060019002022064BD9690A43F4
:1008B000DA61402259690A435A61034A034B5A805C
:1008C0007047C0460004004006470000000C00408E
:1008D00010B5034B9847034B9847034B984710BDFF
:1008E000A9080000D51700004D080000F8B5844B9A
:1008F0009847C0278023834DFF05DB00824E7B6134
:1009000002210A20B0472A0001244A32137821002C
:10091000A34313700C20B04721000C207B4B984759
:100920002A004C3213780221A343137080239B01C9
:100930007B610D20B0472A004D3213780221A3437A
:10094000137080235B037B611420B0472A0054326C
:1009500013780221A343137080239B037B6115202E
:10096000B0472A00553213780221A3431370122096
:10097000B04780232A000421DB0252327B611378C6
:1009800012208B4313700239614B984721001320CA
:10099000B047022113205D4B98472A005332137849
:1009A0000221A34313708023DB017B610E20B0473B
:1009B0002A004E3213780221A343137080231B02B6
:1009C0007B610F20B0472A004F3213782100A343E8
:1009D00013701B20B04721001B204C4B98472A0066
:1009E0005B3213780221A343137080235B057B6184
:1009F0001C20B0472A005C3213782100A3431370F7
:100A00002420B04702212420404B98472A00C432BA
:100A100013782100A34313702520B047022125201D
:100A20003A4B98472A00C53213782100A34313702C
:100A30002620B04721002620344B98472A00C63292
:100A400013782100A34313702720B04721002720EB
:100A50002E4B98472A00C73213789437A34313705C
:100A600080239B023B6002213120B0472A00D13213
:100A700013780221A343137080235B023B60302074
:100A8000B0472A00D03213782100A34313703E20D0
:100A9000B04721003E201D4B98472A00DE321378D4
:100AA0002100A3433F201370B0470422DF352B7889
:100AB00093432B702B78A3432B70164B9847164B00
:100AC0009847164B9847164B9847164B9847164B26
:100AD0009847164B98472023154A91690B43936119
:100AE000144A154B5A80154B984715490200154B6F
:100AF00015489847154B9847154B9847F8BDC04681
:100B0000BD1D000000440041ED0200008102000014
:100B10001102000071030000F5030000B1050000A0
:100B200051060000B906000051070000B907000097
:100B30000004004004400000000C0040632400005A
:100B400000140040AD120000180A00202508000023
:100B5000D1080000836910B5002B00D0984710BD64
:100B6000C36910B5002B00D0984710BDF7B5182405
:100B7000036A05005B5C01925C43836A0E001C19EA
:100B80006B46271D197938000C4B984728000C4BF1
:100B90009847012807D9019B3800190A074B984745
:100BA000A38A0133A382A38A0133A3822368002B83
:100BB00002D0310028009847F7BDC046671B0000EF
:100BC000D11C000070B5040004A80578FF260020A1
:100BD00016540130C0B28342FAD22262621DD3772A
:100BE000A31DDD77059B2000A362054B98470028D5
:100BF00005D1044BA360044B2360044B636070BDBC
:100C0000791C00006D0B0000550B0000610B00000B
:100C1000F7B50E001100026A0500905D0193FF28F0
:100C200020D10024681DC77F2000135CFF2B01D05A
:100C30000134E4B20130C0B28742F6D2AA1DD27F9D
:100C4000A24212D318276743AB6A019AD81904301D
:100C5000074B9847002805D12B6A9C55AB6ADF19D2
:100C6000B882FEBD0D204042FBE71C20FBE7C046DA
:100C70002D1B000010B5024B9847002010BDC04648
:100C8000C51C000070B5012A13D0002A04D0022A26
:100C900011D00D2040420BE0046A655C18246C43BF
:100CA000856A63515C1EA341044CDBB2A04700205F
:100CB00070BD8361F6E7C361F4E7C046091D00001B
:100CC000F0B507000C0085B01E00154B15009847C5
:100CD0003B6A03A81B5D18245C43BB6A1C19114BBB
:100CE0009847231D009318000F4B98470F4B0700A0
:100CF00003A89847AB192E00EF190193701B80B21F
:100D0000BE4202D0019B9E4204D1A38A1B1AA38239
:100D100005B0F0BD31000098054B98470136EDE76E
:100D2000D11C0000450D0000891B0000530D000080
:100D3000451B000010B5024B9847002010BDC0466F
:100D4000F11C0000EFF31083036072B6BFF35F8FF6
:100D50007047BFF35F8F036883F3108870470838CC
:100D6000436810B5002B00D0984710BDCB00C318C6
:100D700010B59C690A00002C09D0013C9C61002C34
:100D800006D059698C1C5C614988044B984710BD9A
:100D900008380368002BFAD09847F8E7ED1E0000EA
:100DA00010B5064B040008309847002805D1044BC5
:100DB000E061A360034B2062E36010BD791E000078
:100DC0006D0D00005F0D000010B50830014B984715
:100DD000002010BDBD1E0000F7B506000836040057
:100DE000019330000A4B0D001700984700280BD0E4
:100DF000EB00E418019B30002362E76139882A0088
:100E0000044B98470020FEBD0D204042FBE7C04642
:100E1000D51E0000ED1E0000044B10B51C68044BED
:100E20009847044B01002000984710BD8401002022
:100E30007D1D0000B51D0000044B10B51C68044B5F
:100E40009847044B01002000984710BD8401002002
:100E5000991D0000B51D000070B5102100250D4C36
:100E60004B195B10DAB20F2B08DCDB00E618766852
:100E7000864204D1E358002B00D0984770BD8642CB
:100E800004D20132D5B28D42EAD9F7E7013AD1B2A4
:100E9000F9E7C04688010020002310B5012419009D
:100EA000054A6442D018446099500833802BF9D128
:100EB000024B0348984710BD880100200D1F000019
:100EC000590E0000F7B500221C4BD4001D196D68A7
:100ED000854206D1E150002900D00121184B9847E6
:100EE000FEBD0132102AF0D10024002922D0E200F8
:100EF0009D58002D1BD11D0099509A18944680359D
:100F00005060019561465C684D68A5420AD2651C37
:100F100008D01F0065461968009142CD42C700996C
:100F200054601160019908339942EBD1D5E701343F
:100F3000102CDCD10D204042D2E7C04688010020B1
:100F4000811F0000436910B5002B00D0984710BDE9
:100F5000836910B5002B00D0984710BD10B5054B24
:100F600004009847002803D1034B2360034B6360C0
:100F700010BDC04605210000450F0000510F0000C4
:100F8000F7B51E000C4B04000D00019298470B4B67
:100F90000700200098474743AF420AD3AB199F424E
:100FA00007D320003300019A2900054CA0470020F8
:100FB000FEBD0E204042FBE7392100003D2100002C
:100FC00043210000F7B51F00104B05000E000192F1
:100FD00098470F4B0400280098474443B44210D36D
:100FE000F3199C420DD3310028000A4B9847041E88
:100FF0000AD128003B00019A3100074DA847200084
:10100000FEBD0E204042FBE71120FBE73921000026
:101010003D2100006D2300008D210000F7B51F0069
:10102000104B05000E00019298470F4B040028005A
:1010300098474443B44210D3F3199C420DD3310076
:1010400028000A4B9847041E0AD128003B00019A49
:101050003100074DA8472000FEBD0E204042FBE7AF
:101060001120FBE7392100003D2100006D23000025
:1010700065220000F7B5134B0E00040015009847D9
:10108000114B0190200098470E4B07002000984715
:1010900001383040009010D00E2040420CE0019901
:1010A00030000A4B98474019874208D320002A0095
:1010B0003100074B98470098FEBDAF42EFD20D209C
:1010C000EBE7C046392100003D210000D56C00004F
:1010D000C522000010B5014B984710BD3921000012
:1010E0001FB514001438828B01AB1A80054A039196
:1010F0005A801900044B02949847002800D1200020
:1011000004B010BD0080FFFF9D2900001FB5140032
:101110001438828B01AB1A80054A03915A8019005A
:10112000044B02949847002800D1200004B010BD61
:101130000180FFFF9D29000010B5054B0400984772
:10114000002803D1034BA361034B636110BDC0466C
:101150008D2900000D110000E110000010B503689A
:10116000984710BD10B54368984710BD10B5074BA0
:101170000400416004309847002806DB0020044B3F
:10118000A382044B2361044BE36010BD5D2B000080
:101190000080FFFFD9110000BD1100007FB50B6872
:1011A000043003934B6804938B6803A90193059360
:1011B000014B984707B000BDE92B00001FB5002385
:1011C0000191029301A9034B0C380392984705B093
:1011D00000BDC0469D1100001FB500230291019380
:1011E00001A9034B0C380392984705B000BDC046D7
:1011F0009D110000F7B50568002D02D1114B9847ED
:10120000F7BD01262C0000278B680093B31A0193C9
:10121000A6686368B44693420DD863449B1A009E47
:10122000B3420CD223682700002B02D13800064BB2
:10123000E5E71C00ECE7019EF3186344EFE7A542E5
:10124000F4D1DBE7F51A0000FD1A0000F8B50369D8
:1012500005005E1C037E44690661DB0702D4037E41
:101260009B0717D502232A7E13432B76F8BD2F0048
:1012700014370C4B38009847237C012B05D166604E
:10128000320021003800084B98476F69E36820005E
:1012900098473C00002CE9D06368A268F31A934297
:1012A000E5D2E3E71F1B0000F511000010B5044B69
:1012B000040098470020034B2061236010BDC04606
:1012C000DD2300004D12000070B5064B0500984765
:1012D000041E04D12800044B9847200070BD112043
:1012E0004042FBE74924000019240000F0B5070044
:1012F0000125037E14372B43037685B00400144B7D
:1013000038000E0098470190002806D0237EAB439A
:101310002376133D280005B0F0BD226931007260CC
:1013200002260C4B38009847237EAB432376237E5E
:10133000019D3342EED003A8074B9847237E20003F
:10134000B3432376054B984703A8054B9847E1E73D
:10135000E51A0000F5110000450D000061240000B1
:10136000530D00000023083810B50363436A002BB7
:1013700000D0984710BD0023083810B50363C36A36
:10138000002B00D0984710BD10B50400044B2C3042
:101390009847236A083C002B01D02000984710BDD5
:1013A000671B000070B514000200831D4C32DE8FF5
:1013B0001588AE420AD1816414800022DA870123A5
:1013C00008308362034B9847200070BD1C204042C8
:1013D000FBE7C04641290000010010B50400838FDF
:1013E00044300088083998420AD0896C581CA0877C
:1013F000C95C2000044B98472000044B984710BD5F
:101400002000034BFAE7C0460929000041290000EB
:1014100049290000F0B5050085B003A80F4B34350D
:101420000E00140098470E4B280098470D4B0700FC
:1014300003A8984733193400F7190193A01B80B211
:10144000BC4202D0019B9C4201D105B0F0BD2100FD
:101450002800054B98470134F0E7C046450D0000D1
:10146000891B0000530D0000451B000070B50400EF
:101470000D00343011001A000D4B9847002813D18D
:101480002000290008300B4B984700280BD10A4B4D
:1014900063600A4B23600A4BA3600A4BE3600A4B6C
:1014A00023610A4B636170BD0D204042FBE7C046DB
:1014B0002D1B00007928000015140000A513000062
:1014C000D913000089130000651300007713000092
:1014D00010B50830014B9847002010BDE9280000E6
:1014E000086000207047000010B5012910D00029C5
:1014F00004D0022913D00D20404208E08262531E1E
:101500009A410121D2B20830084B9847002010BD03
:101510004262531E9A410830D2B20221F4E7C262FD
:10152000531E9A410830D2B20321EDE75129000041
:1015300010B50830014B984710BDC0462D2900005A
:10154000F7B504000F0001922500083528000C4E65
:10155000B0470028F8D00024395D2800094B98478F
:101560002800B0470028FBD0019B01349C42F3D3F4
:101570002800054B98470028FAD02000FEBDC04641
:10158000192900000129000023290000F7B50700F0
:101590000E00002401923D0008352800064B9847B4
:1015A0000028F8D0054B28009847019B305501349E
:1015B0009C42F0D32000FEBD372900001129000015
:1015C00010B5054B040008309847002803D1034BA1
:1015D0006360034B236010BD692800008D15000077
:1015E0004115000010B50830014B9847002010BD90
:1015F000D12800000F22002370B50A4C02405E0182
:10160000A5196D7859B2854209D0365D002E01D1F9
:10161000AA4204D001330D2BF1D101214942080027
:1016200070BDC046080200200020704770B5084B0E
:1016300004000D009847074B40011B189A780020C2
:10164000032A03D19B6929002000984770BDC0463A
:10165000F515000008020020F0B5394B87B0009066
:101660000F0001929847374D4401002F42D12E19A7
:10167000F770295D002934D12200B7780C327078D8
:10168000F369032F28D10C27AA180131F75798477F
:10169000737800280DD00522B270033AF27018005A
:1016A000002F01DB802018430121274B984707B00A
:1016B000F0BD0422B27003AA03905060002F08DB33
:1016C0008020034313720123100053721F4B98476D
:1016D000EDE70F200340F5E7AA1898470223B370FF
:1016E000E5E70123B3702C19E178E369019A0098CA
:1016F0009847DCE72B19012F0CD10222DA70295D03
:10170000002904D19A7000980F4B9847EBE7052207
:101710009A70E8E7022F08D10422DA702A5D002AC5
:1017200001D19F70C3E70122F2E7032F04D1002209
:101730009A700532DA70D6E706229A70FAE7C04648
:10174000F515000008020020153700003D380000A4
:10175000F0B51C4B85B0040098471B4F4301039321
:101760000C33FB18019319002000184B9847802672
:10177000C0B2174D7642082808D001212000A847A2
:1017800001213443E0B2A84705B0F0BD0021264353
:101790002000A847F3B2002118000293A847039B3A
:1017A0000199FE1801272000B77073699847002837
:1017B000EAD105233900B3702000A8473900029808
:1017C000E1E7C046F515000008020020E5370000FB
:1017D0001537000010B5124B984700281FDBD022A8
:1017E000104C52002000104B00219847FF20631C32
:1017F0000E4AA234FF3419001870133120330A60E6
:101800004A608A60A342F6D1094C0A490020A047E9
:1018100009490120A04702200849A047002010BD27
:1018200069330000080200208D70000029160000B6
:1018300079390000511700002D16000059160000DC
:1018400010B5014B984710BD5539000010B5014B3C
:10185000984710BD2D34000010B5014B984710BDBE
:101860007534000010B5014B984710BD8534000059
:10187000F8B5104C06000D001700A047002813DA39
:10188000FF20A047041E12DB3A00290030000A4B5B
:101890009847002807DB094B64011A195670032288
:1018A00000201540E554F8BD14204042FBE7152008
:1018B000FBE7C046F5150000953400000802002043
:1018C000002110B582B2024B0800984710BDC046F7
:1018D0007118000070B5074B05009847041E07DB20
:1018E000054B28009847054B64011C19FF236370C2
:1018F00070BDC046F51500005D35000008020020EF
:1019000070B50C4B0500984700280FDB0A4C4001CE
:10191000035D24185A4253410133A3702800074B3A
:101920009847002801DA0023A37070BD12204042BE
:10193000FBE7C046F515000008020020D93500007D
:10194000F0B5037A8BB0050001931800354B98472A
:101950006B7A061E03936C6862DB334B06A89847CC
:1019600073010093009A314B9E18B37804AAD71DD7
:101970003B703B78DBB20293029A2D4B012A1DD1BA
:101980000232B27006A89847284B009AD35C002B0D
:1019900025D0019BDA09039B591E8B41DBB2297AC2
:1019A0002D6807A807954460002A36D080220A4394
:1019B0004372204B027298470BB0F0BD06A89847BF
:1019C0003B780220DBB2052BF6D0062B04D0012099
:1019D000002BF1D1132000E010204042ECE7F27C14
:1019E000B37C12029B189BB2002B05D104221C0071
:1019F000029BB2701A00D2E79C4200D91C000B492E
:101A0000009A8C466244127B7F2A04D99C429B41F7
:101A100001225B42C3E70023ECE70F220A40C7E73D
:101A20001220DAE7F5150000450D0000080200203D
:101A3000530D00003D380000F8B504000D1E1BD109
:101A4000124B9847061E1EDB02212000104FB8479C
:101A5000002810D029002000B84700280BDB0D4BD0
:101A600076019E1903210123F170B3702A00F369F6
:101A7000200098472800F8BD054B012900D002211D
:101A800020009847F7E712204042F4E7F5150000E0
:101A9000153700000802002070B50F4B15000C0030
:101AA0009847002D00D10D4D002805DB012C09D0F1
:101AB000002C02D0022C0AD070BD094B400118182E
:101AC0004561F9E7064B400118188561F4E7044BBE
:101AD00040011818C561EFE7F51500002916000050
:101AE000080200200068002800D170478842F9D120
:101AF0000120FAE703680B600160704703680B6020
:101B0000016070470368002B03D101600B607047D0
:101B100013001A68002AFBD119600A60F7E703680E
:101B2000002B01D01A68026018007047531E1A403B
:101B300005D143608260C2600160100070470D20D3
:101B40004042FBE78368C2689A4209D0426813406A
:101B50000268D35C0B708368013383600020704798
:101B60000A204042FBE7C268436813400268D15430
:101B7000C36881684268591A914201D99A1A8260F1
:101B80000133C36000207047C3688068181A70472B
:101B9000054B02001968002901D104491960186831
:101BA00082181A607047C046A8030020D02A00207F
:101BB00001204042704780239B0100204B6070470A
:101BC0000120704700207047437EDB09FCD170473D
:101BD000F8B5244B04001A68E0235701DB001F40CE
:101BE000214B52011B68214EDB0E1343DBB21F4316
:101BF0000D00B04723789B0703D5002320002370F6
:101C0000B047012320002370B0471C235D43184BCD
:101C100027855D19AB78AA7E6370EB782000A370EE
:101C20002B79E3702B7C2375EB8AA3842B8BE384C5
:101C300023002A331A70EB88A380B047EB6820009A
:101C40002361B0472B7A20002372B0476B8A2000B3
:101C5000A383B047AB8A20002384B0476B78002071
:101C60002370F8BD2460800020608000C91B000044
:101C7000388500000020704770B50D4B0D00040042
:101C800098470C4B01002800984700280FD10A4BB9
:101C90000A491C6080231B046561094ACB67BFF3B6
:101CA0004F8FBFF36F8FC02149005350136070BD39
:101CB000751C0000D11B0000AC03002004E100E013
:101CC00000E100E00223426911780B431370704772
:101CD00010B54469054B20009847A0888006800F06
:101CE0000338431E9841013010BDC046C91B000097
:101CF000022310B54069027B13430373014B9847DD
:101D000010BDC046C91B00004169012A04D103323D
:101D1000002B07D18A757047022AF9D0002AFAD120
:101D20000132F5E7CA75F6E7124B70B51C686569B4
:101D30002B7EEA7D13401900012211400AD02A7639
:101D400028000D4BA66898476A8B002192B22000AC
:101D5000B04770BD02201A00024004D028766368A4
:101D600020009847F5E704210B42F2D0297623683A
:101D70001100F5E7AC030020C91B00000300C820D8
:101D800096218000584310B52C30FF304900014B9C
:101D9000984710BDD56C00000300C8208000584350
:101DA00010B5034B0230032198470A23584310BD56
:101DB000D56C00000139FDD87047000010B5064B06
:101DC0005A685A60054B9847054B9847054B98470A
:101DD000FF20054B984710BD00400041B52300008F
:101DE000A92C0000E92C000059200000C379DB0970
:101DF000FCD1704770B504000D4DA8472000A847DE
:101E000023789B0705D5002320002370A8472000D6
:101E1000A847012320002370A8472000A8470026D8
:101E20004123A670200063702670A847300070BD63
:101E3000ED1D000001220F4B10B518680369997958
:101E4000114005D09A7143680021002B09D110BDC3
:101E50009C796408144206D002229A710368002B10
:101E6000F5D09847F3E7997989081142EFD0042219
:101E70009A71ECE7B003002070B50C4B0400080029
:101E80000D00984700280FD1094B0A491C60802398
:101E90009B042561084ACB67BFF34F8FBFF36F8F59
:101EA000C02149005350136070BDC046F51D0000AD
:101EB000B003002004E100E000E100E0022300693B
:101EC00010B5027813430370014B984710BDC0460C
:101ED000ED1D000010B50469034B200098472078E1
:101EE0008007C00F10BDC046ED1D000010B5006991
:101EF000014B8181984710BDED1D0000024A5378C7
:101F0000DB09FCD17047C04600180040F8B5164CFC
:101F1000164D0700A847A84723789B0703D5002341
:101F20002370A847A847012300262370A847A84785
:101F30000F4BA67066606661A361E361022322789D
:101F400013432370A84710230A490B4ACB67BFF3FA
:101F50004F8FBFF36F8FC021490053501360074B61
:101F600030001F60F8BDC04600180040FD1E000094
:101F70002222222204E100E000E100E0B40300207C
:101F8000002330B50D4ADC0015196D68854205D176
:101F9000A05CFF2806D10D2040420AE00133102B3F
:101FA000F1D1F8E70123064A8340002902D0D3602B
:101FB000002030BD93601361FAE7C04654850000ED
:101FC00000180040F0B501261F4D85B02B69EA6866
:101FD000764213400393039B2B61039B002B1AD182
:101FE00005B0F0BD10200022184F83185B10D9B245
:101FF000DB000191D95D8C46A1421AD1FB185E68C5
:10200000731C03D0124B30001B6898470122A2407A
:10201000039B9343039303980E4B9847013844B2B4
:10202000631CDFD12B69EA6813400393039B2B6188
:10203000D3E70199A44504DA0131CAB29042D4D25F
:10204000DEE70139C8B2F9E7001800405485000006
:10205000B4030020C16F0000C30716D4030708D5DE
:1020600004220F4BFF329A600E4A5A605A78D20906
:10207000FCD1030608D50822094BFF329A600A4AB0
:102080005A605A78D209FCD170478022044B520022
:102090009A60832252025A605A78D209FCD1DDE755
:1020A000000C00400303010007070100F0B5012404
:1020B0004908057D2542FCD0104C04800124057D93
:1020C0002542FCD02024FF34048300244E009C428F
:1020D00007D30123027D1A42FCD0094BC161038062
:1020E000F0BD175DBDB23E2C03D815196D782D02D9
:1020F0003D4302343580A4B20236E8E744A5FFFF31
:1021000004A5FFFF9E2201614B6813404B60084B02
:102110007E3A1860074B191DCA67BFF34F8FBFF394
:102120006F8FC02149005A5000201A607047C04686
:10213000B803002000E100E040207047802040010B
:10214000704770B5012500694C08067D2E42FCD011
:102150002026FF3606830020294205D0A94309889E
:102160000134090A117001306400241A5E1E98427D
:1021700000D370BD0119098889B21154B04202D24E
:102180001518090A69700230F1E70000F0B50D007A
:10219000C7B0029003920193FF232C009C432300BD
:1021A000661CFF330493FF360094009B00991A1BB2
:1021B00006ABD21802984023274FB847009B403304
:1021C0000093B342F1D13F222E002B1B99091340FB
:1021D000039A501B039F721BBA180592049A9642E9
:1021E00002D8019A002A26D10122029B1B69197D7F
:1021F0001142FCD020222500FF321A836208DA61E6
:10220000164A1A8002982A1B06ABD21829004023CE
:102210000069134FB847009B4035AB42F2D1059B94
:10222000049A0393019BF318013B9A4201D347B0F0
:10223000F0BD3500B0E78A0106AFD219875D0136DF
:10224000D7543F22013313405A425A418918019A08
:10225000013A0192BEE7C0464321000002A5FFFFFC
:10226000AD200000F0B51F000D003F2385B00290A7
:1022700003929D430024A9420BD06C1A4034BC4207
:1022800000D93C000298A3B2039A00690C4EB047F3
:102290004035BC4201D305B0F0BD3B1B0193402B40
:1022A00001D9402301936B46039A02989B88121927
:1022B00029000069024EB047019B4035E418E8E769
:1022C000AD200000F0B50D00FF212E0093B000906E
:1022D000170002A84022224B8E439847B54217D1DF
:1022E000012331003A009C461E4C032A25D80025C4
:1022F000BC08A3002402FF1AA419AF422DD021006C
:10230000402302AA0098184EB04740340135F4E744
:102310002B000136C033FF360193402302AA290067
:102320000098114C013FA047002F16D04035AE4217
:10233000D6D0019B9D42F0D1D2E7009B1B6960463D
:102340001D7D0542FBD020204D08FF300131188350
:10235000FF31DD61043A1C80C7E713B0F0BDC04611
:102360008D70000002A5FFFF8D2100000369012090
:10237000890B89B288401B8C184043425841C0B237
:102380007047000001210A4B10B5186803691A7DD7
:102390000A4204D00368002B00D0984710BD1A7D74
:1023A00052080A42FAD002221A754368F3E7C0467F
:1023B000B8030020064B1A7AD2B21A725A7AD2B2F5
:1023C0005A729A7AD2B29A72DA7AD2B2DA727047C2
:1023D00000040040837ADB09FCD1704770B5012608
:1023E0000400C1600A4D0E800800A847E068A847B5
:1023F0008023E0680380A847E0688369FA239B0094
:102400008361A847E3680020DE71024B1C6070BD49
:10241000D5230000BC030020082270B5084B05003E
:10242000C0681A6003690023064C0361A047E8688E
:10243000A0470223E868028813430380A04770BDC9
:1024400000E100E0D523000010B5C468034B200074
:10245000984720888007C00F10BDC046D5230000D4
:10246000704700207047000070B50125064B1C68BE
:10247000E3681B7A2B4206D02368002B01D0200092
:102480009847E3681D7270BDBC030020002805DB7F
:102490001F2318401E3B8340014A13607047C0460B
:1024A00000E100E0002809DB1F2318401E3B8340A9
:1024B000034AD367BFF34F8FBFF36F8F7047C04698
:1024C00004E100E0002807DB1F23C02218401E3B68
:1024D0008340024952008B507047C04600E100E043
:1024E000C3691942FCD17047C3691942FCD17047D6
:1024F000C3691942FCD17047022210B50368032159
:1025000093430360014B984710BDC046E12400008F
:10251000022210B50368032193430360014B9847DF
:1025200010BDC046F1240000044BC018800AC0B2A0
:102530000338431E984140427047C04600F8FFBD33
:10254000C02310B542689B02134343600421014B32
:10255000984710BDE1240000F7B50500036800911D
:102560005B4F042114000193B84701216B8B009E3F
:102570009BB20E400222002E00D166E013420FD023
:1025800080220B405E425E41297660885201024300
:10259000628062884F48053E024062803000FEBD86
:1025A00004261E4015D06368002B04DD802362885A
:1025B0005B011343638063881BB2002B02DA28009F
:1025C000454B98476388434A13406380022676420E
:1025D000E4E780236288DB001A40009218D00622CC
:1025E00023880421DB09134028000093B847802288
:1025F0006B6AD2011A40F1231343009A042113435A
:102600006B622800B8476388344A13406380C5E78B
:102610006668002E09D163881BB2002B02DA2800FD
:102620002D4B984763882B4AEFE7A36804211A785B
:102630002B0028331A702800B847A3680133A36021
:102640006368013B63600026A8E700981042A5D0AC
:102650006268002A38D05B0736D4019B013ADE0E4F
:102660000E406260002A0AD1002E0CD180236A68D5
:10267000DB0213436B6004212800B84703E0012A02
:1026800001D1002EF2D16368002B10D16388114E66
:102690001BB2002B08DA6B68280033406B60042102
:1026A000B84728000C4B9847638833406380A6687E
:1026B0000421731CA3602800B8472B0028331B7823
:1026C000337002232B76BEE702232B767EE7C046CB
:1026D000E1240000FFFEFFFF41250000FFFBFFFF9C
:1026E000F7B50C000090264B08009847E369C7B285
:1026F000244EDB071BD418237B43234A0225D3181F
:102700005A681C2303211A4020000192B047236815
:102710002B4205D020001D4B984729002000B047D0
:102720000123019A0321134323602000B047182599
:102730007D4320000121B047134B20005D196F68D5
:1027400003212760B047AB68200063600421B047D5
:10275000EB68BF01E360009BB90F9981676A0C4A7F
:1027600020003A4001278F42BF417F42BF031743F9
:1027700067620421B0476B8A009A0020D381FEBDB6
:1027800029250000E1240000D4850000F924000080
:10279000FFBFFFFF304BF7B5C518AD0AEDB2053DE1
:1027A0006A426A41C3690400D5B22C4FDB071AD4D0
:1027B00014236B432A4A0226D318DA691C23032107
:1027C0001A400192B8472368334205D02000254BB8
:1027D000984731002000B8470123019A0321134391
:1027E00023602000B84714266E4301212000B8471B
:1027F0001B4B03219E19F369200023600193B84706
:10280000336A072163602000B847C0230199DB01C8
:10281000B28C19421ED0A389D2045B0BD20C5B038D
:102820001343A38107230736F27F1A40A38952037B
:10283000DB04DB0C1343A38114235D43084B00200E
:102840005D192B000833DB7F2835A3732B783034D8
:102850002370FEBDA281EFE700F8FFBDF124000068
:10286000D48500001125000010B5024B016008005E
:10287000984710BD9527000070B50E4B0600080064
:102880000C009847051E13D10B4BB4619C4201D13B
:102890000A4B1E600A4BE418A40A093464B22000F3
:1028A000084B98472000084B98472000074B984753
:1028B000280070BD95270000000C0042C0030020D6
:1028C00000F8FFBDA5240000C52400008D240000F1
:1028D000022310B500680321026813430360014B13
:1028E000984710BDF1240000022310B58069032130
:1028F000026813430360014B984710BDF1240000A8
:10290000036889B219857047836989B21985704750
:102910000368188DC0B270470368187E0123184001
:1029200070470368187E8007C00F70478369187E60
:102930000123184070470368187E4007C00F704796
:10294000012283699A757047022283699A757047DC
:1029500010B50B000224A34309D183690121002A89
:1029600002D119751C7510BD99759C75FBE701297D
:1029700005D183690331002A06D11975F3E70329CC
:10298000F1D183697D31F6E79975ECE710B5024B1B
:102990000161984710BDC046E12600008023F0B5D4
:1029A00085B0019142885B00040006691A4200D09C
:1029B00080E04A881A434A800200A1C9A1C2726815
:1029C0000421134373603000434FB84725696268A0
:1029D0002B68012A40D1DB0E13423DD080236A6868
:1029E000DB0213436B6004212800B8478023228850
:1029F000DB00510002911A4232D06288D20702D520
:102A000062881343638004212800B847334B02993E
:102A10006A6A19400B008021C9011140802212020C
:102A20000A4313436B6228000421B8478023032222
:102A300020695B02017E013BC9B2002B24D1280032
:102A40002200274DA8470327002820D06388254A65
:102A50001340638005B0F0BD6B68234A1340C1E7A3
:102A6000638804219BB228001B4F0393B847FF23C0
:102A70000299039819400B00012101400B4380216A
:102A80006A6AC9010A40CCE71142D3D0D7E7802255
:102A9000638852001342DDD0802322695B02117EDD
:102AA000013BC9B2002B07D03942F8D022003000D8
:102AB000A847ECE706200CE0019B5B881BB2002BCB
:102AC00002DA3000094B984705206388054A134015
:102AD00063804042BEE7C046E1240000FE070000DC
:102AE00059250000FFFEFFFFFFFFFBFF412500000F
:102AF000194B10B5186801238469227E1A4206D04A
:102B0000A27D1A4203D023750368984710BD237E27
:102B100001229B0707D5A37DD340134203D0022394
:102B200023758368F1E7237E5B070BD53723628B20
:102B30001A4202D008336383E8E7218D4368C9B2A3
:102B40009847E3E7237EDB09E0D080232376C36840
:102B50009847638B9BB2EEE7C0030020F8B51E4B8D
:102B60000600CB189B0ADBB20C00002B02D00D2014
:102B70004042F8BDCB69194DDB0714D4022703216D
:102B80002000A84723683B4208D023680321BB43A9
:102B900020002360A84739002000A8470D23032107
:102BA00023602000A84720000121A8470C4B346077
:102BB000200023600321A84780239B02636020003C
:102BC0000721A8474F23002023734E3B3034207049
:102BD0003371044BF380CCE700F8FFBDE92400001B
:102BE0000C003000FF010000F0B585B001900291AB
:102BF000056803790720EC690F684E680393044069
:102C000031D1284B0321280098472B689B072DD5ED
:102C1000012321009C4604232A7ED2B21A4227D0E7
:102C2000AB6A002E04D003983370012812D8013605
:102C3000013152B2002A2DDA012313205B426B834B
:102C400081332B76404203232A7E1A42FCD02B7616
:102C500005B0F0BD1B0A73700236E9E77B780237D6
:102C60001B02034313E004204042F1E71420FBE77A
:102C7000A142DED363461A42DBD0019BDB88002FE2
:102C800005D0039B3878012BE8D8030001370134C5
:102C9000AB62CEE7029B9B68A342BCD88B42BAD8FA
:102CA0002000D0E7E92400000D4B0E48196A1A6A8B
:102CB00001400220920F920702430A431F211A6229
:102CC0009A69104398611A7F0A401A770822D968D6
:102CD0001142FCD08022196A0A431A627047C0462A
:102CE000000800400000FF0F0222164B9A840E32AB
:102CF000D9681142FCD0144ADA62144A1268920E62
:102D00003F2A0ED08021920289000A439A62104A1B
:102D10009A849A8C520707D41022D9681142FCD0A9
:102D200006E0FC22D201F1E71022D9681142FCD062
:102D300008494A78D209FCD102219A698A439A61EA
:102D40007047C0460008004080BB0104246080003A
:102D500026050000000C004000207047074B9A8CAD
:102D6000920605D4D021DA680A40D02AFBD17047F8
:102D70001022D9681142FCD0F9E7C0460008004093
:102D8000002803D0002901D00530C0B2142301303F
:102D900043430148C0187047C40300200F2370B597
:102DA0000100807C072503401A00CC7C08322540B6
:102DB0005B01012D08D01449520152181021D17124
:102DC000124A9B18597270BD40252C4206D08026AD
:102DD000AC43CC740D4C1C196671A5710825CC7CD4
:102DE0005201AC43CC74002409493031C9188C72AB
:102DF0008C76054952186F21D171044A9B1859727B
:102E0000044B9B689847DEE700500041FF500041AB
:102E1000C4050020C403002020220F238A4010B5DF
:102E20000400807C054903405B015B18D2B25A72F2
:102E3000034BA2681B690121984710BDFF50004158
:102E4000C403002010B50300807CFF2809D0402473
:102E5000DA7C224205D0A243DA74024A14699A68E5
:102E6000A04710BDC4030020F7B5252401AD837C25
:102E70002C70241994466C70FF2B1AD04027C47C08
:102E80003C4216D00F2423401C0008346601002960
:102E900010D00A4FF61980273771084A6401A41828
:102EA000074A695C5B019B18E17159726146054BE9
:102EB0009847F7BD014AB6187771EEE70050004118
:102EC000FF500041452E0000F7B50F22847C01AF72
:102ED00014400B3A3A7004327A70220008320B0028
:102EE0002D4D61015601002B24D0AD5D6D066D0F97
:102EF0002A4E3036B4461E017618B4446646B67A79
:102F0000F6B2022D1AD1013D2E4217D06446A47AA2
:102F10005201AC436546AC721F4DFC5C5219D47132
:102F20001F4A89184C72591E8B410422D9B21D4B7D
:102F30009847F7BDAE5D07253540D9E702252E40FD
:102F400019D06646B67AC47CAE436546AE72124E60
:102F5000FD5C52019219D571114A891807224D72F0
:102F60002240012AE5D16206E3D5C17CC9098B4222
:102F7000DFD00022DBE76000084AC01830320001D1
:102F800012189672084A6401A418054AFB5C891855
:102F9000E3714B72CDE7C04600500041C4050020EC
:102FA000FF500041692E00000051004170B50B4DEB
:102FB0008C232C00FF269B001434ED1803212000E5
:102FC000074B98470021A674E1741434AC42F5D144
:102FD0000448C022044B3030984770BDC403002021
:102FE000452E0000C40500208D700000F0B50F25AF
:102FF00085B00091837C04001D4001936B01029316
:103000000023994206D04D4B6A0130339B185B690F
:103010009B049B0C268A4A4A0396964202D0721E53
:1030200092B20392E27C9446072261461140009AD4
:103030000291002A04D043496A0152180221D17139
:10304000A26867689918A1606A01B94240D26046D7
:103050007F1ABBB2394F80062ED5321C9E4200D952
:103060001A1C236896B259183200374BE06898470B
:10307000324BE26869015B181A646B01FF187B6CC4
:10308000B604B20C9E0BB60316437E647B6C2F4ACB
:1030900013407B64009B002B08D1029B4E22012B26
:1030A00000D0043A2A496B015B189A72254B6D01D6
:1030B000ED1880236B713AE080201E1C8001834252
:1030C00000D9061C2368BA185918B6B21164D4E79F
:1030D0001027604638420ED0E37C6A01BB43E3749C
:1030E000164B1A499B185A6C920B92035A645A6CED
:1030F0000A405A64CEE7029801281AD14B25144899
:1031000012185572039A13409E420CD14025E37C5D
:103110000198AB43E3740F4BDB689847002806D156
:10312000E37C2B43E374002120000B4B984705B050
:10313000F0BD07484A251218E3E7C046C405002041
:10314000FF030000005100417B700000FF3F00F0D2
:10315000FF500041C4030020452E00000F23F0B5AE
:10316000827C87B01A40530104000D1E0192059322
:1031700068D0059A674B9B18586B0001820C03922C
:103180005F6BBF04BF0C238A0293029A624B9A4280
:1031900003D01300013B9BB202930723E27C029E03
:1031A00013403E400493002D05D0019B5B495B0119
:1031B0005B180121D97193060DD56268002A0AD0E7
:1031C000A0682368121A92B21818E168964200D2D9
:1031D0003200534B9847019A63685101002B34D158
:1031E0001020E27C024200D18BE0824320331A435C
:1031F000E274484B059AE1689B181963218A1A000A
:1032000048485B6B8904090903400B435363536BC4
:103210009B0B9B035363002D0DD1019B04995A0115
:103220002523012904D13B4B30339B189D762D2358
:103230003D4952189372019B384A5B019B1840220A
:103240001A711FE003910F009DE7002D1CD0228A08
:10325000B24219D91022E37C9343E374A368DF19C7
:10326000A760049B012B48D12F4BC9182D234B720B
:10327000019B002B02D1274BE2681A63002120003A
:103280002A4B984707B0F0BDA668039AB44662443B
:103290001000A2609342E4D920269B1AE27C9BB2E4
:1032A000278A324212D0381C9F4200D9181C019A3A
:1032B00083B25001174AE46810180463154A19488C
:1032C0005218516B9B041B0901409EE7BB420DD96C
:1032D0008026B601B3420ED8029A93432468019A1D
:1032E000201854010B4A14192063E7E7BB42F5D2BA
:1032F0001643E674F2E73300F0E70B4BC9182523B9
:10330000B5E7002DA3D1A268039B94466344A36054
:10331000A7E7C046C4050020FF030000005100419C
:103320007B700000FF3F00F0FF500041452E000081
:10333000802302009B0007209A4214D8013BFF3BE8
:1033400001389A420FD80138802A0CD80138402A17
:1033500009D80138202A06D80138102A03D80630A7
:10336000904280414042704710B52A4CA378DB0759
:103370000DD40323A2781A42FCD1022223781342EF
:103380003CD1012323700233A2781A42FCD10123DD
:10339000A2781A42FCD1204B204A1A605A609A60E7
:1033A000DA601A611E4B98471F201E4B1A68530B98
:1033B000910C920103400140520F834200D105233A
:1033C0001F2900D10239072A00D1023A9B010B4381
:1033D0001203134323850323E2781A43E2700C227D
:1033E000E1780A43E27004222270A0781840FCD1F0
:1033F0000D4B303363620123238110BD2378934347
:1034000023700323A2781A42FCD10223A2781A4225
:10341000FCD1B6E700500041C4030020592D000044
:10342000AD2F000024608000C405002003220E4B55
:103430009978114215D199781142FCD1022219785C
:10344000C9B2114206D080210020084A1160084A02
:103450001A8370470A431A70032299781142FCD1EB
:10346000F1E711204042F4E70050004100E100E0A4
:103470008D0200000121024A13898B43138170479A
:103480000050004180231843014B98727047C0469A
:1034900000500041F7B500266B460F2400900192C2
:1034A0009E5704400F002B4BF10F20009847032339
:1034B00005001F40052C44D8837CFF2B44D1002FEE
:1034C0000FD1F143234BC90F20009847837CFF2B7A
:1034D0003AD1F33B6343204A9B58002B36D113204B
:1034E00030E0002E16DA0C2262431B4B9B185A6800
:1034F000002A1BD10C236343174CE4186368EB606C
:103500006B469B8800202B826B461B780137EF743B
:10351000AB74FEBD0C2363430F4A9B58002B0BD0AA
:103520000C2262430C4B9B181B8900E05B89019ABB
:103530009342D4DB002EDDDB0C235C43064BE358C7
:10354000DDE712204042E4E71420FBE7002EE7DA33
:10355000C9E7C046812D000014860000F7B50F258D
:1035600043B2DF0F05400193040039002800164BD9
:1035700098470600052D14D8837CFF2B11D0032219
:10358000124B390098470722F37C1340012B09D1D5
:10359000002208340E4B6401E2540023F374FF331D
:1035A000B374F7BD63B2002B07DA7022094B6D01CB
:1035B000ED186B7893436B70EFE7064B6401E418EA
:1035C000637893436370E8E7812D0000692E000063
:1035D00000500041FF500041F7B50F2544B20540AF
:1035E000E10F464B28009847454B6901CE18727889
:1035F0000700D2B2052D00D97BE0837C0193FF2B1D
:1036000000D176E03F4DC37C30356D18072019009E
:10361000014001293BD17724144000D06CE01123F4
:1036200073703B8A00931800374B9847E0230007DC
:10363000DB051840009B354A9B03134003436B6036
:10364000009B40219B049B0C8022184368610F2043
:10365000B1717271019AAC7202402A485201AC7683
:1036600085182800FE682E636D6B9E03284B2B4047
:1036700033434363436B9B0B9B034363204BD31840
:10368000B0225A71A03A99719A722000FEBD002CA6
:1036900017DA7020140004402ED11B01034013439D
:1036A00073703F8A184B38009847E0230007DB050A
:1036B00018408023BF04BF0C384368617371AC7637
:1036C000E3E71040041E17D15B075B0F13437370D1
:1036D0003F8A0D4B380098470C4ABB031340E02249
:1036E0000007D2051040184340236860B371AC72E4
:1036F000CBE712204042C9E71420FBE7812D0000F0
:10370000FF500041C40500203133000000C0FF0F0E
:10371000FF3F00F0F8B507000F25C4092F400E0049
:10372000380021002B4B9847052F4FD8012E15D17B
:103730001022A240837C28491D406B01D2B25B1845
:103740005A712023A340254A6D01DBB2AD18AB723C
:103750000823C27C1343C3740020F8BD837C002E71
:1037600029D12B401E4A5B0199181C4A9B18102234
:10377000A240DD792A42EFD0D2B25A712022A24073
:10378000D5B25D721E7A324204D00122A240D2B27A
:103790001D725A710723C27C1340012B08D1FF31DF
:1037A000CB7930210B40D7D128398A43C274D3E773
:1037B00008239A43FAE71D40074B6D01ED181023CB
:1037C000A340A8791840431E9841C6E71220404202
:1037D000C3E7C046812D000000510041FF50004169
:1037E00000500041F8B50F231840114B440130330D
:1037F0001B190F0019685D68AD04AD0C052812D8BF
:10380000002F10D00B4BE4186378112B0ED110262B
:10381000237A0020334205D008223800064B98470F
:1038200028002672F8BD12204042FBE71320FBE778
:10383000C4050020FF5000417B700000F0B50F254B
:10384000037A87B01D405BB20193DB0F039319002D
:103850000700384B28009847374A038A04001E00A7
:10386000934201D05E1EB6B27A6816400296052DCC
:103870005DD83D6831498D420BD93148511981429B
:1038800007D803210D4004D1019900290EDB9A428B
:1038900006D2E3680125002B08D11320404215E031
:1038A000029B002B14D0E368002B40D0E37C022065
:1038B0001B070BD4234B05A89847E17C40230E003F
:1038C000214A1E4006D005A89047012007B0F0BD50
:1038D000029DEBE70B43E37405A890477F213B680B
:1038E00023607B68A6606360039BDA01E37C0B4086
:1038F000134369011D0020239D430D43E5747B7A2A
:10390000002B03D0029E73425E41F6B21022E37C8C
:10391000360193431E43019BE67400212000002BD7
:1039200003DA0A4B98470020D0E7094BFAE7122048
:10393000B4E7C046812D0000FF030000FFFFFF1F1A
:10394000FF7F0020450D0000530D0000ED2F00000B
:103950005D310000002900D10549012802D1054B45
:10396000596070470028FCD1024B1960F9E7C04646
:10397000592D0000C4030020002900D10749002868
:1039800002D1074B99607047012802D1044BD960DE
:10399000F9E70228F7D1024B1961F4E7592D00002D
:1039A000C4030020F7B5654B1A8C92B20192002A2D
:1039B00057D19A8B198B04200A401400044004D07C
:1039C00098835F4B1B689847F7BD802189001140A1
:1039D0001ED05C4A5C499A839A82923AFF3A1A83D3
:1039E00062018A181000128F38301207120F032A52
:1039F00009D10023018803804904490D0320504B5D
:103A00005B689847E0E70134052CE9D10021F5E730
:103A1000802516004A4C2E4003D09D836368052004
:103A2000EFE7702715003D4009D0464A9F839F82EB
:103A30001A83464B9847636831000220E1E7082665
:103A4000110031400BD0424A55703E4A9E839F82FE
:103A50001A83404B9847636829000120D1E7D207B9
:103A600027D4374F00263C0001251434A27CFF2ABE
:103A70003ED00F231A402B0093400199194237D0B2
:103A8000354953015B183249520152181B78927A1A
:103A900013402DD0142247217243BA181032D27D20
:103AA0001140012915D1DA0609D520002B4B984782
:103AB0001EE0244A9A839A821F836368A1E740210B
:103AC000194001D0290001E09B0611D52000244BAC
:103AD0000DE051B200291ADA5906F3D4190701D5BD
:103AE00029001BE0990708D5290020001D4B9847A5
:103AF000013614341B2EB9D166E707210A40012A8A
:103B0000F6D100215A0709D4DB06F1D5CDE72021F3
:103B1000194001D00021D9E7580702D52000124BE7
:103B2000E5E72B4203D029002000104BDFE70721F7
:103B30000A40012ADCD11A07E6D5D1E7005000413E
:103B4000C403002001020000C40500205D2D000018
:103B5000FF500041AD2F0000075100419D2D000096
:103B6000192E0000ED2F0000C92E00005D3100006D
:103B7000024B1A7B18735A737047C0463C0A0020E8
:103B800070B5044C044D022322000448A8470123C9
:103B9000A37070BD3C070020C10C00001C09002070
:103BA000F7B56A4D6A4CAA88002A0ED0694B0021ED
:103BB0009B1A694A5B009B5A6848238022000123B4
:103BC000674EB047AB88013BAB80EA88002A10D033
:103BD000BC235B009B1A634A5B00D3189B882200BE
:103BE0002380002101235D485D4EB047EB88013BF7
:103BF000EB805D4E3188002913D05C4BDA7A002AC5
:103C00002DD05B4B5B4A5B1A74325B009B5A0021E0
:103C10002380220001235148514FB8473388013B8C
:103C20003380554F3988002913D0504B9A7A002A97
:103C300017D0524B524A5B1A6C325B009B5A0021E0
:103C40002380220001234548454EB0473B88013B75
:103C50003B80A378002B06D0013BA370F7BD3280D8
:103C6000DFE73A80F5E70723A3702B7A002B5AD0C1
:103C7000013B2B72EB68002B01D0013BEB60A3886A
:103C8000002B01D0013BA380E388002B01D0013B36
:103C9000E3802389002B01D0013B2381334CE3785F
:103CA000002BDBD06A8A2B8A013292B201926A46DB
:103CB000013392889BB22B826A82228C9A4220D84E
:103CC00000232B82668B638A9E421AD20136B6B2DB
:103CD0006683B34203D8228B238A9A4203D0228B75
:103CE000238A9A4201D901236370A18A002925D130
:103CF000E38A002B01D09E4203D1012363711F4B45
:103D00003B80019B626A9342A8D300226A822A8286
:103D1000238B218A01339BB22383994201D2012351
:103D2000637062839AE70523F421164A2B72138885
:103D3000FF318B429ED8013313809BE7208B124BBF
:103D4000013898470029D3D0DBE7C0463C07002064
:103D500000000020820C00005C8600004809002062
:103D6000D90D00005C9F0000820100203C0A002069
:103D70007C040000DCA1000080010020D6030000CC
:103D8000DCAA00007E010020B56F000010B51C4CBD
:103D9000A378002B21D01B4B9A88002A1DD13232E8
:103DA0009A80638B618A01339BB263838B4203D316
:103DB000208B228A904203D0228B208A90420DD2FF
:103DC00001236370A18A002912D1E38A002B02D05B
:103DD000628B9A4201D10123637110BD8B42F1D9EC
:103DE0006378002BEED10132013322836383E9E74C
:103DF000208B054B013898470029E6D0EDE7C046F7
:103E00003C0A002000000020B56F000010B5064CF1
:103E10002389002B07D1054B05489847C823012269
:103E20002381044B1A7510BD000000209171000021
:103E3000B8B300003C070020054B10B59A78002A63
:103E400004D0002203489A70034B984710BDC04627
:103E50003C0700201C090020350D0000F0B54D4E38
:103E600085B0718A4C4D4D480291A847F82102ACAB
:103E70000223220089024A4F4A48B84762782178D3
:103E80004948A847494B0A209847318A4848029137
:103E9000A847022322004749414F4248B847627869
:103EA00021784548A847414B0A209847F18A434862
:103EB0000291A847022322004149394F3948B847A7
:103EC000627821783F48A847384B0A209847B18A42
:103ED0003D480291A847022322003C49304F314817
:103EE000B847627821783A48A847304B0A2098476B
:103EF000318C38480291A847022322003649284FC6
:103F00002848B847627821783448A8470A20274BC8
:103F10009847736A324819000393A84703AA0423F9
:103F200030491F4F1F48B84768466B466A46694686
:103F3000C07B527B097B9B7B00902B48A8470A20C3
:103F40001A4B9847B17AF37A0902C91827480291A7
:103F5000A847022322002649114F1248B847227869
:103F600061782448A847114B0A209847F1892248D4
:103F70000291A847022322002049094E0948B04770
:103F8000627821781E48A8470A20084B984705B058
:103F9000F0BDC0463C0A00209D700000C8B3000080
:103FA000C50F000000090020E7B30000390E000033
:103FB0000CB4000002E003002CB4000052B4000076
:103FC00004E0030073B400009AB4000006E00300AC
:103FD000BCB40000E4B4000008E0030003B5000036
:103FE00028B500000AE0030043B500006BB50000EF
:103FF0000EE0030096B50000C7B5000010E0030016
:10400000E6B50000F8B56948694B9847694CF82156
:104010002600694D15363200022389022800674FB9
:10402000B8477378617D1B02654EC91889B2654B2C
:10403000654871829847738A644A013B9BB29342F8
:1040400001D91923738226001536320002236049F4
:1040500028005A4FB8477378617D1B02584EC91823
:1040600089B2584B5B4831829847338A5A4A013BA0
:104070009BB2934201D96423338226001536320065
:104080000223564928004D4FB8477378617D1B02C3
:104090004B4EC91889B24B4B5148F1829847514B4E
:1040A000F28A9A4201D90023F382260015363200A3
:1040B00002234D492800414FB8477378617D1B02A8
:1040C0003F4EC91889B23F4B4848B1829847484B88
:1040D000B28A9A4201D90023B382260015363200F3
:1040E000022344492800354FB8477378617D1B028D
:1040F000334EC91889B2334B3F4831849847338CCB
:104100003E4A643B9BB2934201D964233384260028
:104110001536320004233A492800284FB8477178F1
:10412000637D0902C918B37836481B04C918F378AF
:10413000234E1B06C918234B71629847328C738A31
:104140005343314A934200DD1300716A8B4200D918
:104150007362736A934200D9726226001536022395
:10416000280032002949B8477378154D002B00D03C
:104170000123AB72637D002B00D00123EB72EA7A3E
:10418000A97A104E2248B047220002231532214955
:1041900009480A4FB847617D1F48E981B047EB895C
:1041A0007F2B01D94023EB81F8BDC0460BB6000040
:1041B000917100003C07002000090020810F0000E1
:1041C0003C0A00209D70000029B60000E6030000B4
:1041D00002E003004CB600000E27000004E00300DC
:1041E00070B60000E703000006E0030094B600008C
:1041F0000F27000008E00300B9B6000083030000A9
:104200000AE00300DCB600003F420F000EE00300AE
:10421000FBB6000010E003001EB7000010B5024816
:10422000024B984710BDC04641B700009D7000008A
:10423000F7B5C827009001917F001B4C2378002B15
:1042400014D000232370009C019BE718BC4200D1CE
:10425000F7BD164D012221002800154B9847280074
:10426000144B98470128FAD10134EFE71248134D57
:10427000A847134EF760F368002B05D0114B64205C
:1042800098472378002BF6D02378002B02D10E4BD1
:104290009847DDE70D48A847F1680D4B791A0D489E
:1042A00098470D48A847C8E7640A0020A8090020DD
:1042B0005D1100003115000059B700009171000038
:1042C0003C070020190E00001D42000068B70000E6
:1042D0009D70000084B700009BB7000003004118E8
:1042E00000208B4200D170471A7801335040F8E724
:1042F000F8B5114C114A06000F00030019212000E7
:104300000F4DA8470223C5B22370EB1E6770A37040
:10431000C7B229000B4B200098470023E055013518
:10432000E7197B70E9B22000074B98473100074B33
:1043300007489847F8BDC046810A0020A9B7000089
:1043400011730000DD420000314200009D7000004A
:10435000B0B70000F8B50B2864D802F09DFC061237
:104360001C263076A2AC9863B6E1854B8548984709
:10437000854806211830854B98470020844B984784
:1043800050E07F4B834898477F4806211E307F4B83
:1043900098470120F2E77A4B7F4898477A480621F0
:1043A00024307A4B98470220E8E7754B7B489847C2
:1043B000754806212A30754B98470320DEE7784878
:1043C0006F4EB047704C06212000704D3030A8472A
:1043D0006F4B04209847734FFB7A002B23D0724811
:1043E000B047200006213630A84720003C30062187
:1043F000A847BB7A002B1FD06C48B047200006218D
:104400004E30A847200054300621A8476848B047DE
:10441000684D0421E888684CA0476848B047A888E0
:104420000521A047F8BD6648B0472000062142306C
:10443000A84720004830DAE76248B047200006214C
:104440005A30A84720006030DEE74D4C5E48A04758
:104450004D48062166304D4B98474D4B05209847F7
:104460005A48A047534E544D30880721A847584812
:10447000A04770880621A8475648A04730890821E0
:10448000A8475548A0470921F068A847CAE73C4B10
:10449000524898473C4806216C303C4B98470820CE
:1044A0006CE7374B4E489847374806217230374BF8
:1044B0009847062062E7324B4A489847324806211F
:1044C0007830324B9847072058E72D4B464898479D
:1044D0002D4806217E302D4B9847444C444F454A89
:1044E0003B001921444D2000A8470223C5B2237088
:1044F0000B336370EB1EC6B22900A37020003F4B44
:1045000098470023A0550135A6197370E9B2200021
:104510001E4B984739003A483A4B98470A202DE7F6
:10452000174B39489847C0238022DB0512025A6195
:1045300080228021D2015A61344A490211608021CF
:1045400089021160802252035A61802292035A61CB
:10455000802292015A6101210022124B2C489A704C
:10456000DA701A715A715A83198304300531074B76
:104570009847074B0B209847264A274B9A8051E7CC
:1045800091710000BEB70000DCB2000031420000B3
:10459000713B0000D2B70000EAB70000FFB700008F
:1045A00017B800003C0A002032B8000089B80000AB
:1045B000DEB80000680A0020F1420000FCB80000EC
:1045C0005DB80000B3B800001BB9000032B90000AC
:1045D00050B900006DB900008AB90000A2B900000E
:1045E000B9B90000CEB90000DFB90000810A00208F
:1045F000F1B90000F7B9000011730000DD420000BE
:1046000006BA00009D70000014BA0000940000601B
:104610005CB30000820C00003C070020F7B5124E8E
:10462000124C728A738B070000924021104A2000BE
:10463000104DA8470223C5B22370EB1E6770A3700C
:10464000C7B229000C4B200098470023E0550135E4
:10465000E7197B70E9B22000084B9847718B084B33
:1046600008489847F7BDC0463C0A0020810A002050
:1046700026BA000011730000DD4200003142000044
:104680009D70000035BA0000F7B5124E124C328A08
:10469000338B070000924021104A2000104DA8479C
:1046A0000223C5B22370EB1E6770A370C7B2290046
:1046B0000C4B200098470023E0550135E7197B702B
:1046C000E9B22000084B9847318B084B08489847BF
:1046D000F7BDC0463C0A0020810A002026BA00002F
:1046E00011730000DD420000314200009D700000A7
:1046F00049BA0000002270B5054C1100054D064B6B
:104700002000A84700212000044B984770BDC046F8
:104710001C090020850C0000813B0000750C000086
:1047200070B5124B0B209847114D124B2A88124C32
:104730009A4208D8114806210A30114B984711486F
:10474000A0471148A047FA232A88DB009A4208D9DB
:104750000A48062110300A4B98470A48A0470B48E0
:10476000A04729880A48A04770BDC04655430000AD
:104770003C0700200D0600009D7000005CB30000A7
:104780003142000068BA00007CBA00008FBA000015
:10479000A3BA000070B50B200C4DA8470C480621A9
:1047A00016300C4B98470C480C4CA0470C48A047BF
:1047B0000C4B1E88002E04D10B48A0473000A847A0
:1047C00070BD0120094B9847F2E7C04655430000F1
:1047D0005CB3000031420000B8BA000091710000E3
:1047E000CDBA00007E010020D8BA0000390E0000CA
:1047F00070B51648164DA84700230126154A164CD9
:1048000013825382228A237063716383E383A371CB
:10481000E371237263722371A370637003200F4BE3
:10482000A283268398470E48A8470E4B0E20984730
:104830000D48A8470D4B0F2098470D48A847FA2070
:104840000C4B80009847E67070BDC046EBBA000084
:10485000917100003C0700203C0A002055430000F5
:1048600000BB00001D4600001EBB00008946000082
:104870003DBB0000390E000010B500240A4B0B4868
:1048800098470B4B0B481C7506211C300A4B984768
:1048900007200A4B98470122094B9C70DC701C7161
:1048A0005C711A835C8310BD9171000052BB0000E3
:1048B0003C0700205CB3000031420000554300007B
:1048C0003C0A002070B51248124DA847002301266B
:1048D000114C0220228A237063716383E383A371E6
:1048E000E37123726372E370A37063700B4BA28356
:1048F000268398470A48A8470A4B102098470A4839
:10490000A8470A4B112098470948A847267170BD4F
:1049100067BB0000917100003C0A00205543000075
:1049200000BB00001D4600001EBB000089460000C1
:104930003DBB000010B500240A4B0B4898470B4BB9
:104940000B481C75062122300A4B984707200A4B5A
:1049500098470122094B9C70DC701C715C711A83B2
:104960005C8310BD9171000080BB00003C070020FB
:104970005CB3000031420000554300003C0A0020B7
:10498000F8B5214B214A1B889B18E0229BB25200AC
:10499000934235D81E4E1F48B047012300251E4CB8
:1049A00001202383238A2570A3831C4B65716583B3
:1049B000E583A571E57125726572E57065709847AC
:1049C0001748B047C0278023FF059B01BB611548EE
:1049D000B04780231B02BB611348B0478023DB0133
:1049E000BB611248B047124B280098471148B047A6
:1049F000114B012098471148B0470123A370F8BD1F
:104A00000F4B9847FBE7C0463C070020F1F9FFFF3A
:104A10009171000099BB00003C0A00205543000042
:104A2000ABBB0000BABB0000D0BB000000BB000065
:104A30001D4600001EBB0000894600003DBB000073
:104A40002147000070B51048104CA0470020104BC3
:104A50009847002201210F4B0F489A70DA705A7163
:104A600019835A83C025A0478023ED051B026B6183
:104A70000A48A0478023DB016B610948A0478023D7
:104A80009B016B6170BDC046E6BB000091710000E8
:104A9000554300003C0A0020F8BB000010BC000099
:104AA00028BC00000D490E4A70B58A620A00012335
:104AB0000D002C3213700B4A0B4C8A630B4A4B626D
:104AC000CA6330350A4E1C3120002B74B0472900D0
:104AD0002000B0472000074B984770BD3C070020DE
:104AE000A13B000088130000180A0020393E000096
:104AF000ED120000C9120000F7B50025BC4FBD4BF8
:104B00003D7598478023C0221B02D2055361802344
:104B1000DB0153618022B84B52021A60802292025C
:104B20001A608023C0225B03D205536180239B035C
:104B3000536180239B015361B04B98470123BB70A5
:104B4000AF4B9847AF4B9847AF4BB0489847B04BE7
:104B500081B2B04898472821AD4BAF489847022111
:104B6000AB4BAE4898470121A94BAD48984701216E
:104B7000A74BAC489847A64BAB489847AB4B9847D8
:104B8000AB4CAC4EAC486571A5706570E570257195
:104B900025736573A571E57125726572B0472900AB
:104BA000A64BA7489847A748B047A749A74B22203C
:104BB0009847A748B047A749A44B23209847A64841
:104BC000B0478023C022FA20D2055B059361C00064
:104BD000A24B9847A248B0470122A24BA2481A70A4
:104BE000B0472022A14BA2481A60B047A148B04765
:104BF000A14B00951D80FA223988A04B5200CB189A
:104C00009BB2934278D99E4B9E48DA8F013292B282
:104C1000DA877F4B98479A4BDB8F032B01D99A4B4E
:104C20009847954B1B88642B03D99848B047984BFD
:104C30009847A378002B64D0638BE28B9A4203D011
:104C4000E3830020934B9847238BA28B9A4203D097
:104C5000A3830120904B98476378002B08D06B46C4
:104C6000FA201B78C000A3707C4B98478B4B984769
:104C70003B7D002B0ED0E378002B0BD12379002B4A
:104C800008D13B75A378002B00D162E18448B0477E
:104C9000824B9847834D6B79002BACD06B461B78C9
:104CA0006B712B780D2B00D18DE31E2B00D150E3BF
:104CB000062B00D0F0E1564B69787B48984768781E
:104CC000031F082B00D948E1EB780538012B01D0F0
:104CD00000F041FCBC225200FA80072800D9F1E123
:104CE000704BDB7801F0ECFF6E017B0188019501D0
:104CF0006E01EB017B0188016A46614B1288DA87FD
:104D000089E72279002A00D1E2E03A7D674D002A46
:104D100038D03B75E378002B34D1AB88002B31D1F0
:104D200032336348AB80B047638B618A01339BB2F7
:104D300063838B4203D3208B228A904203D0228B41
:104D4000208A904249D201236370A18A002901D0B0
:104D500000F0EFFBE38A002B02D0628B9A4211D164
:104D60000123544A5449637111802278002A09D1E1
:104D700052482370B0475248524B0621283098477A
:104D80005023EB80EB88002B0AD12278002A07D031
:104D90004D482370B0474A4806212230494B984776
:104DA000638BE28B9A4203D0E3831020394B984700
:104DB000238BA28B9A4203D0A3831120364B9847B2
:104DC0006378002B00D153E76B46FA201B78C000B4
:104DD0002371224B98473D4B49E78B42B5D9637805
:104DE000002BB2D10132013322836383ADE7C04689
:104DF0003C0700201501000094000060F54600000B
:104E0000A54A0000395C0000D51000000009002010
:104E10009D70000038BC000050BC00006ABC00005F
:104E200084BC0000A0BC0000BABC0000054000002B
:104E30003C0A002091710000DDBC0000C90D00009B
:104E400048090020EBBC00008D3D0000C50E0000AD
:104E50000ABD00000D3E000023BD0000390E000019
:104E60002EBD0000640A00204BBD000098000060C9
:104E70005FBD000088BD00007E01002024FAFFFF16
:104E800042070020B1BD000021470000D4BD000052
:104E9000954700001D46000089460000454A000075
:104EA0005ABE0000340A002093BE0000000000201B
:104EB000E7BD000080010020D603000020BE0000F6
:104EC0005CB3000031420000F4BD00003549000031
:104ED000E378002B00D1CBE66379BC4D002B0DD0DD
:104EE0002378002B0AD10133B9482370B047B94861
:104EF000B94B06212E3098475023EB80EB88002BCE
:104F00000AD12278002A07D0B4482370B047B148AC
:104F100006211C30B04B9847638BE28B9A4203D03A
:104F2000E3830E20AE4B9847238BA28B9A4203D08B
:104F3000A3830F20AB4B98476378002B00D197E6F3
:104F40006B46FA201B78C000E370A74B9847A74B2D
:104F50008DE6A748B047A74B9BE6BC235B00FB80D0
:104F6000212800D998E001F0ABFE220025002B009B
:104F7000A800970097009700970097009700970068
:104F800097009700B200B400E700DD01E200CB001B
:104F900098019D01B3017B011A010301EC00B801E6
:104FA000CC01CA01D801DD01D301CE01EF01914B43
:104FB000984771E00720904B98479048B0476BE0C6
:104FC0008F4BF5E7012B06D101230A20E371864BB5
:104FD00098478C48F2E76B461B78E371F9E7012BA1
:104FE00006D101230A2023727F4B98478648E5E7C4
:104FF0006B461B782372F9E7012B06D101230A20A7
:105000006372794B98478148D8E76B461B78637287
:10501000F9E7012B40D1E378002B3DD1A378002B99
:105020003AD12379002B37D0684B9A88002A33D1A4
:10503000323277489A80B047638B618A01339BB2E2
:1050400063838B4203D3208B228A904203D0228B2E
:10505000208A904227D201236370A18A002900D0C0
:1050600071E2E38A002B02D0628B9A4214D10125AF
:1050700068486571B047684B684A1A802378002BEE
:105080000AD167482570B0475248534B0621283053
:10509000984750224D4BDA80624B63485A78197812
:1050A000624B9847A7E58B42D7D96378002BD4D1C0
:1050B0000132013322836383CFE75D4B78E7012B15
:1050C00000D04CE2A3710A20474B98474AE2474B75
:1050D0006EE70E23574D06202B74474B9847EB88FD
:1050E0003C48BB64009B0621FB64534B34303B655A
:1050F000394B9847B86C0B21504B984750485DE7A7
:1051000012234C4D06202B743B4B9847AB883148FB
:10511000BB64009B0621FB644A4B3A303B652E4B37
:105120009847B86C0B21454B9847474846E7052000
:10513000314B9847454841E707202F4B9847444853
:105140003CE719233B4D06202B742B4B98476B886B
:105150002048BB640123FB64374B06213B6540308C
:105160001D4B9847B86C0B21344B9847394825E7BD
:105170001823304D06202B741F4B98472B88154859
:10518000BB640123FB642F4B06213B654630124B69
:105190009847B86C0B21294B98472F480EE71723E7
:1051A000244D06202B74144B98472B890948BB6467
:1051B0006423FB64204B06213B654C30064B98472B
:1051C000B86C0B211D4B98472448F7E600000020DF
:1051D00015BE00005CB300003142000037BE000085
:1051E0001D46000089460000390E00007948000085
:1051F00076BE00008149000055430000B4BE0000A7
:10520000454A0000D6BE0000E3BE0000F0BE00002C
:10521000E7BD0000FDBE000080010020D6030000B5
:1052200020BE0000340A00207CC200009D700000F7
:1052300035490000680A0020E7030000F142000041
:105240000FBF00000F27000035BF00005CBF00004B
:10525000A9BF0000C9BF0000EABF00000CC00000E9
:105260001623C14D06202B74C04B9847EB68BB64D6
:105270002A896B885343BE4A93420CDDFA64BD48C9
:1052800006215230BC4B3A659847B86C0B21BB4B9A
:105290009847BB4892E6FB64F1E70420B34B98477C
:1052A000B8488BE60720B14B9847AF4BB6485A88B1
:1052B00062821A882282DA88E2829A88A2821A8915
:1052C000DB6822846362B047B04B9847B04875E60C
:1052D0000720A64B9847AF4870E6A34B628A04208C
:1052E0005A80228A1A80E28ADA80A28A9A80228CE4
:1052F0001A81626ADA609D4B9847A7485EE6A74B21
:1053000056E6A74B54E60020984B9847A54855E62B
:105310000A20964B9847A44850E60420934B9847A0
:10532000A2484BE60720914B98478F4BA0485A88DC
:1053300062821A882282DA88E2829A88A2821A8994
:10534000DB6822846362BEE70720884B9847994850
:1053500034E6994BEA78697898489847BC235B0013
:10536000FB806B78002B10D0012B00D094E6ED78F9
:10537000002D20D0012D00D08EE691480621363038
:105380007D4B9847E5728F4818E6ED78002D0AD0DE
:10539000012D00D080E68A4806214E30764B984792
:1053A000A57289480AE6864806215A30724B98470A
:1053B000A572864802E68248062142306E4B984725
:1053C000E5728348FAE569787B4BEA787B48984731
:1053D000BC235B00FB80BB6C0193E9786F2920D074
:1053E000B0290AD0632900D090E07A48B047607BAA
:1053F0005E4B9847617B784870E0019B002B04D09E
:1054000018000A21754B9847B8647548B047B96CC5
:10541000019A694B734898470B21B86C574B9847D2
:105420003AE67148B047644BB96C70489847F86CDD
:10543000BB6C524D834206D20B21B864A847FA20B8
:105440006B4B40009847386DBB6C834206D90B21EB
:10545000B864A847FA20664B40009847B96C564B91
:1054600064489847607B414B98473F4D287C0E38F5
:105470000B2819D801F010FC351818183A1818180C
:10548000483F14064823FB181B886B804823FB18F1
:105490001A882B895343EA689A4205D2EB6003E0ED
:1054A0004823FB181B882B8068880621334B9847BC
:1054B00028880721314B9847E88804212F4B9847CB
:1054C000A88805212D4B9847288908212B4B984700
:1054D0000921E868294B9847617B4748364B984734
:1054E00095E74823FB181B88EB80DDE74823FB1872
:1054F0001B88AB80D8E74823FB181B886A882B8160
:105500004823FB181B88C5E7BB6CC7E70B002A3B89
:105510000F2B00D97BE70A23019A30395343C9B2D4
:105520003A6D5B18BB64934201D9019BBB6433485D
:10553000D4E7208B324B01389847002901D1FFF77F
:1055400009FCFFF71FFC208B2D4B013898470029E1
:1055500000D186E5A0E5072801D8FFF7C1FB6B461F
:105560001B78A371274829E5680A002055430000ED
:105570003F420F005CB3000031420000F1420000E6
:1055800030C000004EC000006CC000005D3E000056
:105590009ABF00008CC00000ACC00000F1470000C2
:1055A000C5480000C8C00000E5C00000FEC0000003
:1055B0007ABF00001EC100009D70000042C10000C3
:1055C000DCB20000A0C100006BC1000085C100007A
:1055D000BBC1000021C2000029C20000D56C000040
:1055E000B8C2000058C20000D7C100006CC2000061
:1055F000390E0000E4C10000FBC1000053C20000EE
:10560000B56F0000C9BE0000014B18607047C0466E
:105610009007002010B51030000341180248034CD9
:105620000068A04710BDC046900700201D10000074
:1056300010B51030000341180248034C0068A04721
:1056400010BDC04690070020810F0000094B70B5C7
:105650001D680400084B2800984701008020074B74
:105660004001984721001031020009032800044B33
:10567000984770BD90070020D5100000D56C000041
:1056800075100000F0B500251030000395B01E0025
:10569000431803920193B54202D1012015B0F0BD29
:1056A000741B402C00DD4024E3B20293FF230B481F
:1056B0001C40019B04AA591900682300084FB847F1
:1056C000039B2200581904A9064B9847002803D1D0
:1056D000029BED18ADB2DEE70020DFE79007002067
:1056E000810F00005D700000F0B51030000343181A
:1056F00093B001931600FF21402202A8114B984756
:105700000025B54202D1012013B0F0BD741B402C1E
:1057100000DD4024019B0C48E918FF2302AA234026
:1057200000680A4FB847002302AAD25CFF2A06D1BC
:105730000133402BF8D1E4B22D19ADB2E1E70020DE
:10574000E2E7C0468D70000090070020810F000046
:10575000012903D17F237F30984380B27047000036
:10576000002330B5094A558D99B28D4201D80020E9
:1057700008E05C1CA1000239515A814203D19B0010
:105780000233D01830BD2300EEE7C0469407002056
:10579000010010B5821C09480C311478030A6340DB
:1057A0001C096340000258401C0360405B015840E4
:1057B000013280B29142F0D110BDC046FFFF00001F
:1057C000F7B5070015001E00044C0191A0473300F7
:1057D0002A0038000199024CA047FEBD1556000072
:1057E00085560000F0B587B0019280220D0000219F
:1057F00002AB5201214E0400D970B047071E1DD0E4
:10580000092002AB07221E49C0181E4B9847FF23F0
:1058100003AE33702A0A02AB5D719A712A0C2D0E09
:10582000DA711D7232000C2300212000164EB047A1
:10583000051E0ED10025280007B0F0BD2000134B37
:1058400098478022390052012000B0470028D7D164
:10585000F0E7019B002BEED002AA012303320021C6
:105860002000B047051EE5D00C20094E0021094B51
:105870003080984730802C363470DCE7E9560000E1
:10588000A0C200007B700000C15700004D56000010
:1058900094070020515700000023F0B5FF261D009B
:1058A0008BB0009303AF0C233A00002128004B4C2F
:1058B000A0473B78002B12D1092002ABC018072269
:1058C0004749484B9847002809D13B681A0A3B7959
:1058D0001B061343009A934201D32E000093013517
:1058E000EDB2022DDED1FF2E0ED1009C012201343B
:1058F000210000203C4DA847002803D101222100AF
:105900001000A8470BB0F0BD384C002123002C3309
:105910001E700C20364B9847330010331B03009346
:10592000009A344B94466344208001932F4C06AD7B
:105930000E2321882A003000284FB8470023EA5C54
:10594000FF2A3AD101330E2BF9D1DBE720880E3044
:1059500080B20121264B98472080E7E76F88264BCD
:1059600038009847051E07D1638D5A1C9B009D1C6B
:10597000E318628565195F8006AB1B89002B0AD18D
:10598000618D0422013989B2618589006118023173
:1059900028001A4B9847208806AB6880DB880121D5
:1059A000C0180E3080B2124B20809847009B208098
:1059B000C018019B9842B9D3A4E72800104BAF89C7
:1059C00098478742C2D12B88002BC7D02088EB880C
:1059D000C0180E3080B22080BBE7C04631560000B0
:1059E000A0C200005D700000E55700009407002091
:1059F00051570000FF0F0000615700007B7000004E
:105A00009157000010B50348034B9847034B984744
:105A100010BDC0460009002009560000995800003A
:105A200010B50B00002805D118001100034B984752
:105A3000002801DA0120404210BDC0468D5A000006
:105A4000013810B50C00022805D811002000034BC6
:105A50009847002801DA0120404210BDAD5A0000ED
:105A600070B50600064D074C2B6800219868A047CA
:105A70002B6800215868A047034B1E6070BDC046CC
:105A8000DC000020A5710000C4070020054B10B504
:105A90001B680400181E03D08AB2034B21009847EC
:105AA00010BDC046C407002065110000054B10B5AD
:105AB0001B680400181E03D08AB2034B21009847CC
:105AC00010BDC046C40700205D11000010B5044C95
:105AD000044B200098472000034B984710BDC04658
