:10000000D02A0020550100005101000051010000DC
:1000100000000000000000000000000000000000E0
:10002000000000000000000000000000510100007E
:10003000000000000000000051010000510100001C
:100040005101000051010000510100000133000086
:10005000492D0000C931000051010000DD530000AE
:100060005101000051010000C53C00005101000099
:100070005101000051010000510100005101000038
:100080005101000051010000510100005101000028
:10009000510100005101000051010000A92A000097
:1000A00051010000912B000051010000510100009E
:1000B0000000000010B5064C2378002B07D1054B3B
:1000C000002B02D0044800E000BF0123237010BDC4
:1000D0004001002000000000B0ED0000084B10B50A
:1000E000002B03D00749084800E000BF0748036819
:1000F000002B00D110BD064B002BFBD09847F9E731
:100100000000000044010020B0ED0000B0ED000050
:100110000000000010B5074B9847074B9847074B66
:1001200098470748074B9847074B9847074B98470E
:1001300010BDC0460D0B0000D978000021910000D1
:100140007CA90000F9950000ED900000F97700000F
:10015000FEE70000F8B5234A234B9A4209D0224B10
:10016000204A03E011681960043304321F498B42AE
:10017000F8D31F4B02E000221A6004331D4A934259
:10018000F9D31D4AFF211D4B8B439360FD3990230A
:100190005B001B4AD1501B4AD3780325AB43022492
:1001A0002343D370D3780C27BB4308263343D37043
:1001B000154B987B30229043202210439873997BF3
:1001C000B943314399739A7BAA4322439A730F4AE6
:1001D000516880230B4353600D4B98470D4B984754
:1001E000FEE7C046B0ED0000000000204001002006
:1001F00040010020CC0A002000ED00E000000000DB
:1002000000700041005000410048004100400041A2
:100210007D9400007D64000010B5084A9369202198
:100220000B439361064A074B5A80074B98470200DD
:1002300006490748074B984710BDC04600040040D8
:1002400004400000000C0040FD320000001400409B
:10025000180A00206D1B0000F0B585B01B4A116A1A
:1002600080235B020B431362194A1A4B5A801A4CC3
:100270001A4E002302931A4B019301250095002387
:10028000220018493000184FB847221D10230021C2
:100290003000164CA0470822C023DB055A60144AE0
:1002A000144B9362C0231B0693624321535CAB4300
:1002B00001200343DBB253541239535C0F20034037
:1002C00010200343DBB2535405B0F0BD00040040DE
:1002D0001E400000000C00405C0100201C090020B2
:1002E0006C09002000400042490F0000FD0F000093
:1002F0000044004108000040F8B5DE4657464E462F
:100300004546E0B5D84AD94B5A80C021C9050120DD
:100310008423C850D64BA822D64C9C50D64D9D5015
:10032000842408513C34A4461C5D0427BB46B946CE
:100330004F463C43E4B26746DC5594240851DF5DE8
:10034000874301242743FFB266469F55103EB446BB
:100350009F5DA13EB74366469F55AE3EB246842799
:10036000CE51C64F9F509D508427CE51BF36B046C8
:100370009F5D4E463743FFB246469F552D3E57463A
:100380008F5146469F5D87432743FFB29F55664680
:100390009F5DA13EB246374066469F555E46842724
:1003A000CE51B74F9F509D50BE36B4469F5D5E46BE
:1003B000B74366469F559F5D87432743FFB29F55CE
:1003C000113EB4469F5DA23EB74366469F55A93E87
:1003D0008427CE51AB4F9F509D508427CE51BB36C2
:1003E000B0469F5D4E463743FFB246469F5598271D
:1003F000BB3ECE5146469F5D87432743FFB29F5584
:1004000066469F5D5646374066469F558027BF002B
:100410002D3E8F519C4F9F509D504536B4469F5D59
:100420005E46B74366469F559F5D87432743FFB2AD
:100430009F55153EB0469F5D5646374046469F55F0
:100440008027FF01303E8F51904F9F509D504A367C
:10045000B4469F5D5E46B74366469F559F5D8743A2
:100460002743FFB29F55173E9F5DA83EB743A8366E
:100470009F5510274F60864F9F629D62733EB44622
:100480009F5D5E46B74366469F559F5D8743274302
:10049000FFB29F55123E9F5D233EB74323369F55C3
:1004A0008027BF0152368F517A4F9F509D50493659
:1004B000B4469F5D5E46B74366469F559F5D874342
:1004C0002743FFB29F55173EB4469F5D56463740BF
:1004D00066469F5580277F00323E8F516E4F9F505A
:1004E0009D504436B1469F5D5E46B7434E469F558C
:1004F0009F5D87432743FFB29F5546469F5DA53EBC
:10050000B74346469F5580273F02303E8F51634F89
:100510009F509D504B36B0469F5D5E46B743464662
:100520009F559F5D87432743FFB29F55183E9F5DB0
:1005300056463740A8369F5520274F60584F9F6238
:100540009D62723EB0469F5D5E46B74346469F55EC
:100550009F5D87432743FFB29F55133E9F5D5646DD
:10056000374023369F5580277F0152368F514D4F9C
:100570009F509D504836B0469F5D5E46B743464605
:100580009F559F5D87432743FFB29F5566469F5DFA
:10059000A73EB74366469F5540274F60424F9F6234
:1005A0009D62703EB4469F5D5E46B74366469F556A
:1005B0009F5D87432743FFB29F55133EB0469F5D23
:1005C000243EB74346469F5580273F0151368F5101
:1005D000364F9F509D504736B4469F5D5E46B743A9
:1005E00066469F559F5D87432743FFB29F55163E42
:1005F000B4469F5D5646374066469F5580274F60FC
:100600002B4F9F629D626E3EB1469F5D5E46B74333
:100610004E469F559F5D87432743FFB29F554646F1
:100620009F5D5646374046469F558027FF0051360E
:100630008F51204999509D50CA215A5C5D46AA436A
:100640005A545A5C82431443E4B25C5462469A5C46
:10065000BB398A4361465A54174B98473CBC904675
:100660009946A246AB46F8BD05400000000C00408C
:100670000044004101000240000002C002000240AC
:100680000400024008000240000202400040024014
:1006900010000240002002400001024000800240A1
:1006A00020000240001002404000024000080240CA
:1006B000800002400004024061140000024AD36935
:1006C00004210B43D36170470004004010B5034B75
:1006D000984703490348044B984710BDBD060000E6
:1006E0000040004100090020D1150000F0B5C024F1
:1006F000E40580235B006361A360224B224A9A6277
:10070000C0200006986248215A5C0125AC46AA43E5
:1007100001273A43D2B25A5414395A5C0E35AA43CF
:1007200002252A43D2B25A54802292006261A2600A
:10073000164A9A62986249201A5C6546AA433A436F
:10074000D2B21A54585C0F26304020252843C0B23C
:1007500058548022120162600D4A9A620D4A9A62D0
:100760004B22995C042081439954995C60468143F3
:100770003943C9B2995435215A5C32402A43D2B226
:100780005A54F0BD00440041000100400002004006
:1007900000080240000002C0044A136A04210B430F
:1007A0001362034A034B5A807047C046000400405E
:1007B00014400000000C004010B5044B9847044959
:1007C0000448054B9847054B984710BD9907000012
:1007D000000800428409002099190000ED0600007D
:1007E000044A136A08210B431362034A034B5A80DD
:1007F0007047C0460004004015400000000C004057
:1008000030B50F4B5022995C0125A94301242143A7
:10081000C9B299543820195C413A914302221143DC
:10082000C9B2195451215A5CAA432243D2B25A5434
:100830001A5C42390A4020210A43D2B21A5430BD10
:100840000044004110B582B0074B98470023009345
:100850001033064A143206490648074CA047074B96
:10086000984702B010BDC046E10700005C010020BF
:10087000000C0042A8090020091E00000108000029
:1008800070B5134B5620195C042291431954195C1E
:100890000125A94301242143C9B219541B38195C0D
:1008A0000F26B14302263143C9B2195457215E5C69
:1008B00096435E545A5CAA432243D2B25A541A5CFD
:1008C00048390A4020210A43D2B21A5470BDC046AA
:1008D00000440041054A136A20210B431362044B74
:1008E000044A5A80044A5A807047C04600040040B7
:1008F000000C0040174000001343000010B5044BEB
:10090000984704490448054B9847054B984710BD44
:10091000D508000000140042F8090020E918000082
:100920008108000030B50F4BD622995C0125A94300
:1009300001242143C9B29954BB20195CC73A9143A1
:1009400003221143C9B21954D7215A5CAA43224346
:10095000D2B25A541A5CC8390A4030210A43D2B282
:100960001A5430BD00440041044A136A80210B43ED
:100970001362034A034B5A807047C046000400408C
:1009800019400000000C004010B5054B98470022AC
:1009900004490548054B9847054B984710BDC0468C
:1009A00069090000001C00429C0900208120000011
:1009B0002509000010B50422C023DB055A600A494E
:1009C0000A4B8B62C0231B068B624223CA5C012048
:1009D00082430243D2B2CA5431228B5C0F24A34318
:1009E0000343DBB28B5410BD0044004104000040BF
:1009F000044A116A8023DB020B431362024A034B51
:100A00005A8070470004004021400000000C004064
:100A100010B5044B984704490448054B9847054BCB
:100A2000984710BDF1090000004800424809002025
:100A3000E1120000B5090000F0B5C64600B5C024BB
:100A4000E40580225204A2601C4B8027FF059F62B0
:100A50001B49996262615820195C042290469143B7
:100A60001954195C0126B14301252943C9B219540F
:100A70001C38195C0B32914306229446624611439E
:100A8000C9B2195480218904A1609F620D4F9F62F1
:100A9000616159215C5C424694435C545A5CB243A8
:100AA0002A43D2B25A541A5C4A390A4060210A4396
:100AB000D2B21A5404BC9046F0BDC0460044004176
:100AC000000100C0000200C0064BDA6920210A4381
:100AD000DA615A6920310A435A61034A034B5A804A
:100AE0007047C0460004004006470000000C00406C
:100AF00010B5034B9847034B9847034B984710BDDD
:100B0000C90A000045230000390A0000F0B5DE469E
:100B100057464E464546E0B583B0CC4B9847C02279
:100B2000D2058023DB0053619360C94BC9499962A8
:100B3000C02424069C624A25585D012188435855EB
:100B40008020400184465060C3489862C348986240
:100B5000604650600235585D04263043C0B2585597
:100B600060469061585D88435855802080015061EF
:100B70009060BB4898629C620135585D8843585527
:100B800080204003506190608020C0059862B54885
:100B9000986254208446185C8843654658558020E6
:100BA0008003506190608020C0059862AE489862D2
:100BB00055208446185C8843654658558020C002FD
:100BC00090608025ED059D62A84D9D625061522088
:100BD0008446185C0425A84365465855585D8843EB
:100BE0000125A84645462843C0B2654658553920D8
:100BF0008446185C433DA8430225A8464546284341
:100C0000C0B2654658558020000381465060984820
:100C100084469862974898624846506053208046C0
:100C2000185C3043C0B24546585548465061585D3F
:100C3000884358558020C001506190608E4898626A
:100C40009C624E208046185C88434546585580205B
:100C5000000250619060894898629C624F24185D40
:100C60008843185580200005804650606046986291
:100C700083489862404650600C34185D3043C0B2DF
:100C8000185540469061185D8843185580204005EE
:100C9000506190608020C00598627A489862013463
:100CA000185D88431855283410208246105198301A
:100CB000754D1D50694D1D5055461551B435A94609
:100CC0005D5D35436F46FD71FD79A8464D4647464B
:100CD0005F55303DA846574657514D465D5D8D43A3
:100CE000AA464D4657465F55A43DAB461551674D44
:100CF0001D505A4D1D505D461551A535AA465D5DE6
:100D000035436F46FD71FD79A94655464F465F55FF
:100D100045465F46575155465D5D8D43A94655464C
:100D20004F465F55853DAB461551594D1D504B4DB6
:100D30001D505D4615518635A9465D5D35436F46AC
:100D4000FD71FD79AA464D4657465F552E3DAA4690
:100D50005F4657514D465D5D8D43AB464D465F4600
:100D60005F55463DAB4615514A4D1D503B4D1D50FC
:100D70005D4615514735A9465F5D3743FFB25F5564
:100D800055465F4657514D465F5D8F435F558027FF
:100D9000BF02454657510C3DA94657518025ED05E8
:100DA0001D503D4F1F50D1255F5D8F435F558027FC
:100DB0007F02454657514D4657518025ED051D5040
:100DC000364F1F50D0255F5D8F435F558025ED0561
:100DD000155165461D50324F1F508025ED051551A8
:100DE000DE27DD5D2E43F6B2DE5555468026F6053C
:100DF0005651DD5D8D43DD5580252D06155162462A
:100E00001A50284A1A50DF22985C803CA04398541C
:100E1000985C88439854244B9847244B9847244B1C
:100E20009847244B9847244B9847244B9847244B8A
:100E30009847244B9847244B9847244B984703B036
:100E40003CBC90469946A246AB46F0BD1D2B000027
:100E5000004400410004004000100240000002C0B5
:100E600000200040100000C0200000C0040000C0AE
:100E700000000240080002C0004000400080004026
:100E8000000802C0001000C0100002402000024014
:100E90004000024080000240020000C0010000C08B
:100EA000004002C0008002C059020000F9020000A8
:100EB000CD060000B907000045080000FD0800004D
:100EC0008909000019020000110A0000F10A00005F
:100ED00010B58369002B00D0984710BD10B5C369C9
:100EE000002B00D0984710BDF0B583B005000E0070
:100EF0001100036A9A5D53009B18DC00836A9C46CC
:100F00006444271D01916B46197938000C4B9847B2
:100F100028000C4B9847012807D9019B190A380073
:100F2000074B9847A38A0133A382A38A0133A38284
:100F30002368002B02D031002800984703B0F0BD91
:100F4000E12700003B2A0000F0B5D64600B582B08C
:100F50000500019116001C0008AB1F7800280CD07A
:100F600000290CD0002A0CD0002F0CD0099B002B9C
:100F700001D0012008E0002006E0002004E000206D
:100F800002E0002000E000203F221649164B9A465E
:100F90009847621CFB0FD017BA425841C0B240229A
:100FA0001049D047002303E0FF22F2540133DBB2A3
:100FB000A342F9D92E622423EC540133EF54099B48
:100FC000AB6201992800094B9847002805D1084BCE
:100FD000AB60084B2B60084B6B6002B004BC9246C0
:100FE000F0BDC046A0A90000A1260000CD29000048
:100FF000E90E0000D10E0000DD0E0000F0B583B058
:1010000007000C0000920193002819D0002A19D083
:10101000002B19D10020244E66223100234DA84711
:101020002423FB5C0020A3424041C0B26722310070
:10103000A847396A0B5DFF2B2CD10026002307E05F
:101040000020E8E70020E6E70120E4E70133DBB217
:101050002422BA5C934205D8CA5CFF2AF6D0013636
:10106000F6B2F3E72523FB5C9E4216D873009B196A
:10107000DD00BB6A58190430019A00990C4B98475F
:1010800000280DD13B6A1E55BB6A5B1900229A826B
:1010900003B0F0BD0D204042FAE71C204042F7E7C4
:1010A0000D204042F4E7C046A0A90000A1260000A0
:1010B00049270000F8B506000C000B4D431E98416F
:1010C000C0B283222900094FB8472423F35C0020D3
:1010D000A3424041C0B284222900B8472100300019
:1010E000034B98470020F8BDA0A90000A1260000EE
:1010F0002D2A0000F0B5CE4600B504000D00170003
:101100001E00431E9841C0B29C221649164B9946B8
:1011100098472423E35C0020AB424041C0B29D22AB
:101120001049C847236A5B5D012F17D0002F04D0F8
:10113000022F15D00D2040420DE05A00D318DA00DE
:10114000A36A9E50731E9E41F3B23A00290020000C
:10115000064CA047002004BC9146F0BDA661F1E713
:10116000E661EFE7A0A90000A12600006B2A0000BD
:10117000F0B5CE46474680B583B005000C009046DA
:101180001E00002834D0002A34D0002E34D1002094
:10119000BC222549254FB8472423EB5C0020A342FD
:1011A0004041C0B2BD222049B8472800204B984793
:1011B000010030001F4B984748424841C0B2BF224F
:1011C0001949B8472B6A1A5DA96A53009B18DA00BF
:1011D0008946914401A8184B98474B461D1D28008D
:1011E000164B9847070001A8154B984700240BE0C1
:1011F0000020CDE70020CBE70120C9E70134A4B2ED
:10120000414428000F4B98472100A74201D9B4421E
:10121000F4D34B469B8A1B1B4A469382200003B0A3
:101220000CBC90469946F0BDA0A90000A126000084
:101230003B2A00001D9400007112000021280000CC
:101240007F1200009527000010B50400431E98414E
:10125000C0B2D6220349044B98472000034B98475D
:10126000002010BDA0A90000A1260000572A000000
:10127000EFF31083036072B6BFF35F8F7047BFF365
:101280005F8F036883F31088704710B50838436890
:10129000002B00D0984710BD70B50500083DCB1C51
:1012A000DB00EB189B68002B0CD0013BCA1CD20062
:1012B000AC18A360002B06D108380368002B01D0BE
:1012C0002800984770BD23006268941C5C605388B6
:1012D0000A001900014B9847F4E7C0464F2C000064
:1012E00070B504000D00002817D0002913D001208C
:1012F00038220F490F4B98472000083029000E4B29
:101300009847002806D10D4BA3600D4BE3600023E6
:10131000002B04D070BD0020EAE70020E8E7DA1CCB
:10132000D200A2180021516091600133DBB2EFE7D7
:10133000BCA90000A1260000D52B000099120000D6
:101340008B12000070B504000D0000280DD000299C
:101350000DD000205D220749074B98472000083038
:101360002900064B9847002070BD0020F2E70120BD
:10137000F0E7C046BCA90000A1260000292C00000F
:10138000F0B5C64600B504000D00170098460028C9
:1013900007D0002907D1002A21D0002B21D100201D
:1013A00002E0002000E000208F221049104B9847F7
:1013B00026000836290030000E4B9847002812D02E
:1013C000EB1CDB00E41867604346A36039882A0001
:1013D0003000094B9847002004BC9046F0BD002027
:1013E000E2E70120E0E70D204042F5E7BCA900005C
:1013F000A12600003D2C00004F2C000010B5044B2E
:101400001C68044B984701002000034B984710BD0F
:1014100088010020F52A0000152B000070B510256A
:10142000002407E00D4AB358002B00D0984770BD48
:10143000013AD5B2AC42FAD82B195B10DAB20F2AB6
:10144000F5D8FF210B40DE00044989194968814223
:10145000E8D0EDD20132D4B2ECE7C0468C010020D6
:1014600010B5002309E0084AD9005018012464424D
:1014700044600020885001339BB20F2BF3D90348FE
:10148000034B984710BDC0468C0100201D1400007E
:101490005D2C0000F0B5D6464F464646C0B584B038
:1014A00000230F2B0DD8DC00334A121952688242F8
:1014B00002D00133DBB2F4E72F4BE15001239A460F
:1014C00001E000239A4600290CD05346002B41D15D
:1014D0000F2B13D8DA00284D5259002A08D00133B7
:1014E000DBB2F5E75346002B40D0244B984737E05A
:1014F000DC0061512C19606001229246002201E05B
:101500000132D2B20F2A25D80F2B23D801931A49C2
:10151000DC000C196768D400091949688F42EFD2C2
:101520004C1CEDD002A98C46134FD400A0463C19A8
:10153000664622CC22C60199C900894641467918DF
:101540004C463C1960CC60C13D004D44614650C9D9
:1015500050C5D5E75346002B0BD00121074B9847C8
:1015600004B01CBC90469946A246F0BD0D204042F6
:10157000F6E70D204042F3E78C010020F52C000037
:1015800010B54369002B00D0984710BD10B5836992
:10159000002B00D0984710BD70B504000D00431E0D
:1015A0009841C0B21822FF320649074B98472000E5
:1015B000064B98470138054201D1002070BD0E202E
:1015C0004042FBE7D8A90000A12600005D2F0000E3
:1015D00070B504000D00002813D000290FD00120A1
:1015E00038220949094B984729002000084B9847A1
:1015F000002803D1074B2360074B636070BD0020B8
:10160000EEE70020ECE7C046D8A90000A1260000C4
:10161000FD2E0000811500008D150000F0B5C646B6
:1016200000B504000E0015001F00002820D0002A7D
:1016300020D0002B20D1002056221349134B98476D
:101640002000134B984780462000124B9847434692
:101650005843B04212D3BB19984212D33B002A0020
:10166000310020000C4CA047002004BC9046F0BD87
:101670000020E1E70020DFE70120DDE70E20404207
:10168000F3E70E204042F0E7D8A90000A1260000B1
:101690005D2F0000612F0000672F0000F0B5C646E7
:1016A00000B504000D0016001F00002826D0002AF7
:1016B00026D0002B26D100206A221849184B9847C3
:1016C0002000184B984780462000174B9847434608
:1016D0005843A84218D37B19984218D329002000F8
:1016E000124B9847002815D13B00320029002000FA
:1016F0000F4CA047002004BC9046F0BD0020DBE763
:101700000020D9E70120D7E70E204042F3E70E2062
:101710004042F0E711204042EDE7C046D8A9000062
:10172000A12600005D2F0000612F0000B1310000F4
:10173000B52F0000F0B5C64600B504000D00160038
:101740001F00002826D0002A26D0002B26D10020FA
:1017500082221849184B98472000184B984780461A
:101760002000174B984743465843A84218D37B198B
:10177000984218D329002000124B9847002815D111
:101780003B003200290020000F4CA047002004BC81
:101790009046F0BD0020DBE70020D9E70120D7E725
:1017A0000E204042F3E70E204042F0E71120404275
:1017B000EDE7C046D8A90000A12600005D2F00007B
:1017C000612F0000B13100008D300000F0B583B012
:1017D000040000911700002825D0002A25D1002000
:1017E0009A221649164B98472000164B98470190AD
:1017F0002000154B9847050000992000134B98478F
:10180000061E0DD1AF4212D801990098104B98478F
:10181000381885420ED33A00009920000D4B9847A6
:10182000300003B0F0BD0020DAE70120D8E70D2634
:101830007642F5E70D267642F2E7C046D8A90000C9
:10184000A12600005D2F0000612F00009915000007
:101850003D9100000931000010B50400431E98417D
:10186000C0B2F7220349044B98472000034B984726
:1018700010BDC046D8A90000A12600005D2F0000C1
:1018800010B584B01438848B01AB1C801400029214
:10189000064A5A8003911900054B9847002802D147
:1018A000200004B010BD0400FAE7C0460080FFFF2E
:1018B000493A000010B584B01438848B01AB1C8009
:1018C00014000292064A5A8003911900054B98476A
:1018D000002802D1200004B010BD0400FAE7C04681
:1018E0000180FFFF493A000070B504000D00431E5F
:1018F0009841C0B25E220749074B98472900200053
:10190000064B9847002803D1054BA361054B636143
:1019100070BDC046F0A90000A1260000193A0000E1
:10192000B51800008118000070B504000D00160005
:1019300000280ED000290AD0012034220649074B86
:1019400098472368320029002000984770BD002086
:10195000F3E70020F1E7C0460CAA0000A126000032
:1019600070B504000D00160000280ED000290AD022
:1019700001203D220649074B984763683200290041
:101980002000984770BD0020F3E70020F1E7C04633
:101990000CAA0000A126000070B504000D0000286C
:1019A00017D0002913D0012040220B490B4B984738
:1019B0006560201D29000A4B9847002806DB094B6B
:1019C000A382094B2361094BE360002070BD002016
:1019D000EAE70020E8E7C04620AA0000A1260000B0
:1019E000D93C00000080FFFF751A0000391A000082
:1019F00030B587B004000D00002815D0002911D0A3
:101A00000120B32209490A4B98472B6803936B685E
:101A10000493AB6801930593201D03A9054B9847D8
:101A200007B030BD0020ECE70020EAE720AA000064
:101A3000A1260000D53E000070B584B004000E0061
:101A40001500431E9841C0B2A3220749074B98478F
:101A500020000C38002302930196039501A9044B42
:101A6000984704B070BDC04620AA0000A12600001F
:101A7000F119000070B584B004000E001500431E7B
:101A80009841C0B287220749074B984720000C387D
:101A9000029600230193039501A9044B984704B0D3
:101AA00070BDC04620AA0000A1260000F119000068
:101AB000F8B50668002E02D0330000250CE0104B6C
:101AC000984718E09F68BC466444A41A01348F68A4
:101AD000BC420BD21D001B68002B07D05C689442EF
:101AE000F0D8A41A9F68BC466444F0E7B34203D020
:101AF0002800044B9847F8BD014B9847FBE7C046C8
:101B0000C1260000ED260000F8B505004469036910
:101B10005E1C0661037EDB0702D4037E9B070AD5A9
:101B20002B7E02221343DBB22B76F8BD6F69E3688C
:101B3000200098473C00002CF7D06368F31AA26895
:101B40009342F2D32F0014373800064B9847237C7A
:101B5000012BEBD16660320021003800024B984720
:101B6000E4E7C04635270000B11A000070B5040054
:101B70000D00002812D000290ED001203B22084978
:101B8000084B984729002000074B98470023236102
:101B9000064B2360002070BD0020EFE70020EDE73A
:101BA0003CAA0000A126000035320000091B0000FD
:101BB00010B50400431E9841C0B253220749084B98
:101BC00098472000074B9847002804D12000064B77
:101BD0009847002010BD11204042FBE73CAA0000BE
:101BE000A1260000E93200009132000070B582B0F9
:101BF00004000D00002826D0002922D001207A22DE
:101C00001F49204B9847237E01221343DBB22376E2
:101C100026001436290030001B4B9847002814D1A9
:101C200023696B60226929003000184B9847237E96
:101C3000012293432376237E9B0712D4002002B017
:101C400070BD0020DBE70020D9E7237E012293430B
:101C500023767E320A4900200A4B984712204042E0
:101C6000EDE701A80A4B9847237E0222934323768F
:101C70002000084B984701A8074B98470020DEE753
:101C80003CAA0000A1260000A9260000B11A00000D
:101C900071120000FB3200007F12000010B50838FE
:101CA00000230363436A002B00D0984710BD10B592
:101CB000083800230363C36A002B00D0984710BD87
:101CC00010B504002C30044B9847236A083C002BC5
:101CD00001D02000984710BDE127000070B5040036
:101CE0000E00150000281DD000291DD0002A1DD18E
:101CF00000203C22FF321049104B98474423E25AFF
:101D00000833E35A9A4213D1A6644C23E5520022C9
:101D1000083BE252433B236320000830084B9847BE
:101D2000280070BD0020E4E70020E2E70120E0E7A2
:101D30001C204042F5E7C04654AA0000A12600003E
:101D40009139000070B504000200083A4423D35AC8
:101D50004C21525A93420DD00200016C083A5D1C8E
:101D600044201552C95C2000044B98472000044BC6
:101D7000984770BD034B9847FBE7C04655390000B4
:101D80009139000099390000F0B585B004000D00CC
:101D90001600002817D0002917D0002A17D10020DC
:101DA000AC2252001249134B984703A8124B984794
:101DB000343420000194114B9847070003A8104BBE
:101DC000984700240BE00020EAE70020E8E7012024
:101DD000E6E70134A4B2691801980A4B984721003C
:101DE000A74201D9B442F4D3200005B0F0BDC046EB
:101DF00054AA0000A1260000711200002128000052
:101E00007F12000095270000F8B504000D001600B1
:101E10001F00002826D0002926D0002A26D0002B1B
:101E200026D100203A221549154B9847200034301E
:101E30003A003100134B984700281BD1200008308E
:101E40002900114B984700280BD1104B6360104BB1
:101E50002360104BA360104BE360104B2361104BC9
:101E60006361F8BD0020DDE70020DBE70020D9E753
:101E70000120D7E70D204042F3E7C04654AA0000F6
:101E8000A1260000492700009D380000891D0000A0
:101E9000DD1C0000451D0000C11C00009D1C000051
:101EA000AF1C000010B50400431E9841C0B261226F
:101EB0000449054B984720000830044B9847002000
:101EC00010BDC04654AA0000A12600003B39000006
:101ED00070B504000D0000280BD0002907D00120A8
:101EE00077220549054B98472C60002070BD0020E3
:101EF000F6E70020F4E7C04654AA0000A12600003F
:101F000070B505000E001400431E9841C0B2832234
:101F10001649174B9847012E11D0002E04D0022EDF
:101F200018D00D20404209E0AC62621E9441E2B23A
:101F30002800083001210F4B9847002070BD6C62CB
:101F4000621E9441E2B2280008300221094B9847F2
:101F50000020F3E7EC62621E9441E2B228000830F0
:101F60000321044B98470020E8E7C04654AA00002C
:101F7000A1260000A139000010B50400431E9841BD
:101F8000C0B2F8220349044B984720000830034BA5
:101F9000984710BD54AA0000A12600007B3900001C
:101FA000F8B505000E001700002823D0002923D023
:101FB000002A23D10020F1221149124B98472C000E
:101FC00008342000104B98470028F8D00025715D98
:101FD00020000E4B984720000B4B98470028FAD062
:101FE0000135BD42F3D32000094B98470028FAD0B1
:101FF0002800F8BD0020DEE70020DCE70120DAE75A
:1020000074AA0000A1260000653900004D390000C7
:102010006F390000F8B5CE46474680B5051E8846A4
:1020200091461FD000291FD0002A1FD100208622F0
:1020300052000F490F4B984700262C00083420000F
:102040000D4B98470028F8D043469F1920000B4BB2
:102050009847387001364E45EFD330000CBC90469F
:102060009946F8BD0020E2E70020E0E70120DEE726
:1020700074AA0000A1260000853900005D39000027
:1020800070B504000D00002814D0002910D00120E4
:1020900034220949094B9847200008302900084B91
:1020A0009847002803D1074B6360074B236070BD3E
:1020B0000020EDE70020EBE774AA0000A126000055
:1020C0007138000015200000A11F000010B50400A9
:1020D000431E9841C0B253220449054B9847200043
:1020E0000830044B9847002010BDC04674AA000079
:1020F000A12600002939000010B50100002001E0F0
:10210000013040B20C280FDC4201094B9B185A7871
:102110008A420BD04301064C1B5D002BF0D10F33DC
:102120000B409342ECD101E00120404210BDC0467B
:102130000C0200200020704770B504000D00084B11
:1021400098474201074B9B189B78032B01D0002036
:1021500070BD044B98188369290020009847F7E761
:10216000F92000000C020020F0B587B005000F0038
:1021700001924A4B984704004601494A9619002F9C
:1021800051D1130042010020F070D35C002B0ED01F
:102190006201434B9B1801229A706401404B1C1949
:1021A000E369E178019A2800984707B0F0BDB37859
:1021B0000C243457032B08D032000C3270780021E5
:1021C000F36998470223B370EFE7707832000C325E
:1021D0000121F3699847002810D00523B370033B11
:1021E000F370002C08DB7378802040421843C0B2A3
:1021F00001212C4B9847D8E77078F9E70423B37096
:102200007178002203920492002C09DB843B0B437B
:10221000DAB203A8027201234372234B9847C4E742
:102220000F220A40F5E7012F0AD0022F1DD0032FFD
:102230002CD042011A4B9B1806229A70DA70ACE738
:10224000174B420199180220C870D35C002B05D0AF
:102250006201134B9B1805229A709EE702228A7036
:10226000002128000F4B984797E70D4B4201991822
:102270000420C870D35C002B05D06201084B9B186A
:1022800001229A7089E702238B708EE74201044B8A
:102290009B1800229A700532DA707EE7F920000060
:1022A0000C020020E54F0000B5510000F0B5C64615
:1022B00000B505001F4B98470600430108331E4C2C
:1022C000E4180434210028001C4B9847C0B20828A9
:1022D0000CD0012128001A4CA047802040422843FE
:1022E000C0B20121A04704BC9046F0BD00212800E7
:1022F000134B9846984780277F422F43FFB2002117
:102300003800C04772010C4B9B1801229A705B6920
:102310002100280098470028E5D17601064B9E1938
:102320000523B37001212800054CA0470121380086
:10233000A047D8E7F92000000C0200203D51000022
:10234000E54F000010B5124B984700281FDBD02244
:10235000520000210F48104B984700220AE051011B
:102360000C4B5B18FF2159700C4959619961D96177
:102370000132D2B20C2AF2D909490020094CA047F7
:1023800009490120A04709490220A047002010BDAB
:10239000B14900000C020020F59400003521000036
:1023A000AD220000AD53000039210000692100007A
:1023B00010B5014B984710BD8953000010B5014B73
:1023C000984710BD594A000010B5014B984710BD01
:1023D000A94A000010B5014B984710BDB94A00004A
:1023E000F8B505000E0017000F4B9847002814DAC7
:1023F000FF200D4B9847041E12DB3A0031002800E5
:102400000A4B9847002807DB094A640113195D70DD
:1024100003231E40A6540020F8BD14204042FBE7D1
:1024200015204042F8E7C046F9200000CD4A0000E0
:102430000C02002010B582B200210020014B984709
:1024400010BDC046E123000070B50500064B98475B
:10245000041E07DB2800054B98476401044B1C1938
:10246000FF23637070BDC046F9200000154C0000CA
:102470000C02002070B505000F4B9847041E17DBB7
:1024800043010E4A9B5C002B0AD1022162010B4BD7
:102490009B18997028000A4B9847002802DB70BDF2
:1024A0000121F3E76401054B1C190023A370F6E733
:1024B00012204042F3E7C046F92000000C02002041
:1024C000D94C0000F0B5D6464F464646C0B586B05A
:1024D0000500067A30003F4B98470700F6096B7AF3
:1024E0005A1E9341DCB26B68984600286BDB04A847
:1024F000394B98477A01394B9B189A7817236B44CC
:102500001A701B78012B0ED004A8354B984717235F
:102510006B441B78DBB2052B2BD0062B56D0002B3F
:1025200029D001201FE02D4B99467B019A464B464E
:10253000534403229A7004A8294B98474B465246AD
:10254000D35C002B1AD0297A2B680193434602935F
:10255000002E35D0802252420A43D2B201A8027224
:102560004472204B984706B01CBC90469946A24640
:10257000F0BD0220F7E713204042F4E77B01174A41
:10258000D218937CD47C24021B199BB2002B06D159
:10259000042393700023984601240126D3E77F018A
:1025A0000E4AD7190C22BA56D60F984500D998462C
:1025B000002A01DB0024C6E798459B415C42C2E744
:1025C0000F220A40CAE712204042CCE710204042C6
:1025D000C9E7C046F9200000711200000C0200207B
:1025E0007F120000B551000070B50400002905D02D
:1025F000012924D00221134B984770BD124B9847F4
:10260000051E19DB022120000E4B98470028F4D04C
:10261000002120000B4B98470028EEDB6D010B4B8F
:102620005D190123AB700233EB70EB6900220321CB
:10263000200098470020E0E712204042DDE7014BF0
:102640009847DAE7E54F0000F92000000C0200206F
:1026500070B50D0014000F4B98470300002C08D0F4
:10266000002B05DB012D0BD0002D04D0022D0CD04A
:1026700070BD094CF4E74001084B18184461F7E7B6
:102680004001064B18188461F2E74001034B18180B
:10269000C461EDE7F9200000352100000C020020A4
:1026A000002800D100BE70470368002B03D08B4286
:1026B00003D01B68F9E7002070470120FCE7000009
:1026C00070B504000D00064B984701235840C0B276
:1026D00039220449044B984723682B60256070BD5C
:1026E000A926000090AA0000A126000003680B6044
:1026F0000160704770B505000E0004680A4B9847EA
:1027000001235840C0B24F220849094B98472B6813
:10271000002B03D12E60336005E01C002368002BE2
:10272000FBD12660336070BDA926000090AA00008E
:10273000A12600000368002B03D01A68026018006D
:1027400070470020FCE7000070B504000E00150083
:10275000002812D0002912D0002A12D100202822ED
:102760000A490B4B98476B1E2B420CD16360002328
:10277000A360E3602660002070BD0020EFE700202A
:10278000EDE70120EBE70D204042F5E7B0AA00009D
:10279000A126000070B504000D00002816D0002905
:1027A00012D0012040220C490C4B9847A368E268E4
:1027B0009A420DD0626813402268D35C2B70A368E4
:1027C0000133A360002070BD0020EBE70020E9E7A3
:1027D0000A204042F7E7C046B0AA0000A126000048
:1027E00070B504000D00431E9841C0B251220A4941
:1027F0000A4B98476368E26813402268D554E3683F
:10280000A2689A1A61688A4201D9591AA1600133F3
:10281000E360002070BDC046B0AA0000A126000001
:1028200010B50400431E9841C0B267220349044B0F
:102830009847E068A368C01A10BDC046B0AA00005F
:10284000A12600000300064A1268002A04D0044AA8
:102850001068C318136070470249014A1160F6E717
:10286000AC030020D02A0020012040427047802382
:102870009B014B600020704701207047002070478B
:102880000020704710B50B4B98470200002000282D
:1028900006D07F2208490020084B9847002010BD31
:1028A000C3001B1A9900064BCB5C9A42F7D001304B
:1028B000C0B2ECE781280000F0AA0000A1260000C9
:1028C000D4AA000070B504000D003A4BC018434272
:1028D0005841C0B294223849384B9847384B1A684F
:1028E000D2081202E023DB001A4036490B6849681F
:1028F0004901DB0E0B43FF210B401A43637EDB09CA
:10290000FCD123789B0704D500232370637EDB0969
:10291000FCD101232370637EDB09FCD12285EA0010
:10292000521B9100284B5B189A786270DA78A2707B
:102930001A79E2701A7C2275DA8AA2841A8BE284F0
:10294000997E2A22A154DB88A380637EDB09FCD117
:10295000EB005B1B9A001C4B9B18DB682361637EBA
:10296000DB09FCD1EB005B1B9A00174B9B181B7A11
:102970002372637EDB09FCD1EB005B1B9A00124BD8
:102980009B185B8AA383637EDB09FCD1EB005B1B96
:102990009A000D4B9B189B8A2384637EDB09FCD134
:1029A000EB005D1BAA00084B9B185B78237000208E
:1029B00070BDC04600C0FFBDF0AA0000A126000007
:1029C0002460800020608000D4AA000070B505005B
:1029D0000C00431E9841C0B2D3220E490E4B9847BB
:1029E00020000E4B9847010020000D4B984700280F
:1029F0000FD16C610B4B1D600B4B802212048021A8
:102A00005A50BFF34F8FBFF36F8F0131FF315A50D0
:102A10001A6070BDF0AA0000A12600008528000001
:102A2000C5280000B003002000E100E042691378EF
:102A300002210B43DBB2137070474269537EDB09FE
:102A4000FCD19288120903331340032B01D00220DA
:102A500070470120FCE74269137B02210B43DBB284
:102A60001373537EDB09FCD170474169012A08D0FA
:102A7000022A0ED0002A03D1002B12D00123CB75DD
:102A80007047002B02D104338B75F9E70423CB7513
:102A9000F6E7002B02D102338B75F1E70223CB75E9
:102AA000EEE701338B75EBE710B5114B18684269FF
:102AB000117ED37D0B40D9070AD501231376846894
:102AC000537EDB09FCD1528B92B20021A04710BD8E
:102AD000990707D45B07FAD504231376036800210E
:102AE0009847F4E702231376436800219847EEE7FE
:102AF000B003002010B50300C82080005843023006
:102B00000321034B984783001B18580010BDC04693
:102B10003D9100000139FDD87047000010B5064B0B
:102B20005A685A60054B9847054B9847054B98479C
:102B3000FF20054B984710BD00400041F9310000CF
:102B4000E93F00002D400000052E0000C379DB099D
:102B5000FCD1C379DB09FCD103789B0707D500239F
:102B60000370C379DB09FCD1C379DB09FCD10123F4
:102B70000370C379DB09FCD1C379DB09FCD1837015
:102B8000412242700370C379DB09FCD100207047F9
:102B900010B50F4B186803699A79D20707D501223F
:102BA0009A714368002B01D00021984710BD9A7993
:102BB000920707D502229A710368002BF6D00021F4
:102BC0009847F3E79A795207F0D504229A71EDE716
:102BD000B403002070B504000D00431E9841C0B23C
:102BE0008E220C490C4B984728000C4B9847002824
:102BF0000FD125610A4B1C600A4B80229204802170
:102C00005A50BFF34F8FBFF36F8F0131FF315A50CE
:102C10001A6070BD08AB0000A12600004D2B00001B
:102C2000B403002000E100E00269137802210B43A5
:102C3000DBB21370D379DB09FCD170470269D37919
:102C4000DB09FCD113785B0801201840704702694A
:102C50009181D379DB09FCD170470000214B5B786F
:102C6000DB09FBD11F4B5B78DB09FBD11D4B1B78CC
:102C70009B070AD500221B4B1A701A4B5B78DB09A5
:102C8000FBD1184B5B78DB09FBD10122154B1A7085
:102C9000144B5B78DB09FBD1124B5B78DB09FBD172
:102CA000104B00229A705A605A610F4A9A61DA6199
:102CB0001A7802210A43D2B21A700A4B5B78DB09F8
:102CC000FBD10A4B102280215A50BFF34F8FBFF324
:102CD0006F8F0131FF315A501A60054B1860002088
:102CE0007047C046001800402222222200E100E086
:102CF000B803002030B500230F2B0BD8DC00104A9E
:102D000012195268824202D00133DBB2F4E70C4B55
:102D1000E25C00E0FF22FF2A0ED0002906D1012349
:102D20009340084A93601361002030BD0123934013
:102D3000044AD3600020F8E70D204042F5E7C04682
:102D400020AB000000180040F0B583B0274B1A6993
:102D5000D9680A400192019A1A61254B1868431EEE
:102D60009841C0B2D2222349234B984701256D4296
:102D700031E0DB00214AD3185D686B1C03D01C4B8B
:102D80001B68280098470122A240019B93430193AE
:102D900001981B4B9847013844B2631C14D010268D
:102DA000002001E00139CEB2B042E6D833185B1002
:102DB000D9B2FF221340DF00104ABA5CA242D8D039
:102DC000F0DA0131C8B2EFE7084B1A69D9680A4056
:102DD0000192019A1A61019B002B05D00198084BC2
:102DE0009847013844B2D8E703B0F0BD001800405E
:102DF000B8030020A0AB0000A126000020AB00001B
:102E000029940000C3070AD5114B802252009A6012
:102E1000832252025A600E4B5B78DB09FBD1030719
:102E200009D50B4B0422FF329A600A4A5A60084BBC
:102E30005B78DB09FBD1030609D5054B0822FF327D
:102E40009A60054A5A60024B5B78DB09FBD17047F8
:102E5000000C00400303010007070100037DDB07AE
:102E6000FCD52023FF3303834908C161024B1A4379
:102E700092B202807047C04600A5FFFFF8B504007B
:102E80000F0016001D000120084043425841C0B207
:102E9000C52252001549164B98477908237DDB0758
:102EA000FCD5144B2380237DDB07FCD52023FF3387
:102EB00023830A00002304E05700388002339BB2CA
:102EC0000132AB4208D2F75CB8B23E2BF4D8F0180E
:102ED000407800023843EFE7237DDB07FCD5E16152
:102EE000054B069A13439BB22380F8BDB8AB000094
:102EF000A126000044A5FFFF00A5FFFF70B5050057
:102F00000C0000281CD0104B99421BD000204622F8
:102F10000E490F4B98472C6162689E2313406360F3
:102F20000C4B1D600C4B202280215A50BFF34F8F59
:102F3000BFF36F8F0131FF315A501A60002070BD0E
:102F40000020E4E70120E2E700400041B8AB0000C8
:102F5000A1260000BC03002000E100E040207047F3
:102F600080204001704770B54C0805692E7DF6073A
:102F7000FBD52020FF302883C80707D50134012066
:102F800081430988090A1170012103E0002101E051
:102F900002312C0099420BD2651C6400208880B25B
:102FA00050545C1EA142F3D24C1C000A1055EFE7AE
:102FB00070BD0000F0B5DE4657464E464546E0B5CA
:102FC000C5B0814616001D000C0048E0534699012B
:102FD00004AB5A18414440234846294FB8470123BF
:102FE0009C46E2445346032BF0D94346E31A990921
:102FF0003F22134002E001340136013D039A94421E
:103000000DD8002D0BD030788A0104AFBC46624445
:10301000D05401333F221340EDD10131EBE70222BE
:1030200041464B461869174B984700239A460EE0D5
:103030005346990104AB5A184144042300933C338E
:1030400048460069104FB84701239C46E244534666
:10305000032BEDD92B19013B039A9A4209D2FF2386
:1030600022009A4390461700FF37039700239A46A1
:10307000B8E745B03CBC90469946A246AB46F0BD89
:10308000672F00005D2E00007D2E0000F0B5DE46AB
:1030900057464E464546E0B583B0814692469B462C
:1030A0003F230E009E43B1420ED0741A40345C455B
:1030B00000D95C46A3B204220092524648460069F9
:1030C000104DA84740360DE000240BE053461A1976
:1030D000ABB204210091310048460069094FB8475E
:1030E000403664195C4505D25B461D1B402DEDD969
:1030F0004025EBE703B03CBC90469946A246AB4660
:10310000F0BDC0467D2E0000F0B5D6464F4646467F
:10311000C0B590B007008A461500FF230C009C4301
:103120004022FF2168461F4B9847A24520D001341A
:10313000FF34002398464346022B19D840236A46A1
:1031400051463800184EB047013D002D23D0402392
:103150009C46E24454450BD03F3B9C46E044EAE7A2
:10316000022221003869114B98470134FF34043D95
:10317000032DF5D8002D0ED00023994609E04023F9
:103180006A4621003800084EB047403401239C466F
:10319000E1444D45F3D810B01CBC90469946A24678
:1031A000F0BDC046F5940000B52F00005D2E000074
:1031B000890B02690904090C01238B40108C18400B
:1031C00043425841C0B2704710B50A4B18680369B2
:1031D0001A7DD20704D50368002B00D0984710BD94
:1031E0001A7D9207FBD502221A754368002BF6D090
:1031F0009847F4E7BC030020064B1A7AD2B21A7241
:103200005A7AD2B25A729A7AD2B29A72DA7AD2B21E
:10321000DA7270470004004010B50400C3681B7ADE
:10322000DB0706D50368002B00D09847E36801222E
:103230001A7210BD70B504000D00431E9841C0B253
:1032400033221049104B9847E56001232B80AB7A5D
:10325000DB09FCD1E268937ADB09FCD1803313806F
:10326000937ADB09FCD1E2689369FA239B009361AE
:10327000937ADB09FCD10133E268D371034B1C6004
:10328000002070BDD8AB0000A1260000C0030020C4
:1032900010B5041E20D0C368002B1BD001206A2269
:1032A0000E490F4B984708220E4B1A60E2681369CB
:1032B00000231361937ADB09FCD1E268937ADB097E
:1032C000FCD1138802210B439BB21380937ADB0954
:1032D000FCD110BD0020E2E70020E0E7D8AB000001
:1032E000A126000000E100E0C268937ADB09FCD16E
:1032F00013885B0801201840704770470020704712
:1033000010B5024B1868024B984710BDC00300204F
:1033100019320000024B9C466044800AC0B27047DC
:1033200000F8FFBD10B58469237EDB0702D5A37DBD
:10333000DB070FD4237E9B0702D5A37D9B070ED40A
:10334000237E5B0715D5628B37231A420CD00833D6
:10335000638310BD0123237503689847F9E70223AF
:10336000237583689847F4E74368218DC9B298476D
:10337000EFE7237EDB09ECD080232376C3689847F0
:10338000638B9BB26383E4E7034B984200D07047A2
:10339000024B1960FBE7C046000C0042C40300204A
:1033A00010B5024B98470930C0B210BD153300006C
:1033B00010B50B4B984701000020012809D8830065
:1033C0001B189A00074BD35C994208D00130C0B259
:1033D000F3E7054A05490020054B9847002010BD3A
:1033E00015330000F0AB00005E02000054AC00009A
:1033F000A126000070B50400384B9847E369DB074D
:103400001DD483001B189A00354B9B185A681C2347
:103410001A40E3699B07FCD123689B0709D5236801
:1034200002218B432360E3699B07FCD1E3699B077F
:10343000FCD4012313432360E3699B07FCD1E369B8
:10344000DB07FCD483001B189A00254B9B185B6894
:103450002360E3699B07FCD183001B189A00204B73
:103460009B189B686360E3695B07FCD183001B18B2
:103470009A001B4B9B185B689A040BD4C022D201A4
:10348000134207D183001B189A00154B9B189B8988
:10349000A38115E083001B189A00114989188A89B5
:1034A000A389D204D20C5B0B5B031343A3818B7BF8
:1034B00007221A40A3895203DB04DB0C1343A381C8
:1034C000074A83001D18A9000D005118C97BA1737C
:1034D0005219127C3023E254002070BDB133000039
:1034E000F0AB000010B50E4B98470023002B08D01E
:1034F000F02292000B4900200B4B984701204042DC
:1035000010BD5A00D218D100084A52182821525C26
:10351000904202D00133DBB2E8E758B2F0E7C04690
:103520001533000054AC0000A1260000F0AB0000F1
:1035300070B505000C0008002E4B9847C0B2E36937
:10354000DB071DD443001B18DA002B4B9B18DA6AEB
:103550001C231A40E3699B07FCD123689B0709D50C
:10356000236802218B432360E3699B07FCD1E36955
:103570009B07FCD4012313432360E3699B07FCD121
:10358000E369DB07FCD443001B18DA001A4B9B18D5
:10359000DB6A2360E3699B07FCD143001B18DA0058
:1035A000154B9B181B6B6360E3695B07FCD44200FF
:1035B0001218D100104B5B185A6BE260DA6A120ED7
:1035C00003231A40AA81023B93429B415B42626AF9
:1035D0000A490A409B0313436362E3695B07FCD417
:1035E00043001818C200044B9B185B8FEB8100202E
:1035F00070BDC046E5340000F0AB0000FFBFFFFF28
:1036000070B5050004692368DB0E01261E40431EC9
:103610009841C0B28E4A8F498F4B98476B68012BF7
:103620004DD063688D4A13406360E3695B07FCD447
:103630002B885A054ED56A88D20704D56A8880211E
:10364000C9000A436A805B00854A1A40E3695B0748
:10365000FCD4636A8021C9010B401343802212020B
:1036600013436362E3695B07FCD42E697D4A337EB2
:10367000DBB21800511E002A02D00A009B07F6D0C8
:103680002368DB0E01221A40E3695B07FCD4638BDD
:103690009BB2C10700D48FE09A072FD50122227672
:1036A0006A88802149010A436A806A886E490A4013
:1036B0006A80DB0700D4C6E005204042A2E0002E6D
:1036C000AFD062688023DB0213436360E3695B076A
:1036D000FCD4ADE75B00FF2213406A8801210A4059
:1036E0001A43E3695B07FCD4636A8021C9010B407C
:1036F00013436362E3695B07FCD4B6E75B071BD443
:103700006B885B0534D52A881212520006231A40B2
:10371000E3695B07FCD4636A8021C9010B40134352
:10372000F12213436362E3695B07FCD46B884F4A61
:1037300013406B80002065E06B68002B04DD6B8814
:103740008022520113436B806B881BB2002B06DB77
:103750006B88454A13406B800220404252E0626809
:10376000C0239B0213436360E3695B07FCD4EFE76C
:103770006868002811D16B881BB2002B04DB6B88B2
:10378000394A13406B803DE06268C0239B021343BB
:103790006360E3695B07FCD4F1E7AB681A78282320
:1037A000E254E3695B07FCD4AB680133AB606B6840
:1037B000013B6B60002025E0810747D5696800293F
:1037C0003CD05B073AD401396960002901D1002A55
:1037D0001BD0012917D06B68002B07D16B881BB257
:1037E000002B1BDB6B88204A13406B80AA68531C9C
:1037F000AB60E3695B07FCD42823E35C137002230E
:103800002376002070BD002AE5D062688023DB02A9
:1038100013436360E3695B07FCD4DCE76368124A27
:1038200013406360E3695B07FCD46268C0239B02BA
:1038300013436360E3695B07FCD4D3E70223237679
:1038400002204042DEE704204042DBE70020D9E7C7
:10385000BC05000054AC0000A1260000FFFFFBFFE8
:10386000FE070000FFFF0000FFFEFFFFFFFBFFFF62
:1038700070B505000C00431E9841C0B2B622044941
:10388000044B98472C602000034B984770BDC046FE
:1038900054AC0000A1260000F533000070B506000E
:1038A0000C00431E9841C0B2C4221949194B9847D5
:1038B0002000194B9847051E01D0280070BDB46147
:1038C00031002000154B98472000154B984743B214
:1038D000002B0ADB1F21014001228A408021114C6C
:1038E0006250BFF34F8FBFF36F8F002B07DB1F2199
:1038F000014001228A40C02149000A4C6250002B3D
:10390000DBDB1F2318401E3B8340064A1360D4E7CD
:1039100054AC0000A1260000F533000089330000FC
:10392000A133000000E100E00268136802210B43AC
:103930001360D3699B07FCD1704782691368022129
:103940000B431360D3699B07FCD17047036889B2AE
:1039500019857047836989B2198570470368188D86
:10396000C0B270470368187E01231840704703688F
:103970001B7E5B080120184070478369187E012375
:103980001840704703681B7E9B0801201840704751
:10399000836901229A757047836902229A7570477C
:1039A00070B504000D001600431E9841C0B2174ABE
:1039B0001749184B9847002D0BD0022D09D0012D27
:1039C00018D0032D0FD1A369002E1CD080229A7528
:1039D00009E0A369002E07D101221A75A369002E00
:1039E00005D102221A7570BD01229A75F6E70222EE
:1039F0009A75F8E7A369002E02D104221A75F2E73E
:103A000004229A75EFE780221A75ECE71E02000087
:103A100054AC0000A126000070B504000D00431E48
:103A20009841C0B2044A0549054B984725612900D1
:103A30002000044B984770BD2F05000054AC0000D7
:103A4000A126000031350000F8B505000E0004691C
:103A5000431E9841C0B2934A9349944FB84728698E
:103A6000431E9841C0B2BD22D2008F49B8473000F2
:103A7000431E9841C0B28E4A8B49B8476B88DB051C
:103A800000D50BE1728880235B009C461A4372804C
:103A90002A00310089C989C26268634613436360A2
:103AA000E3695B07FCD42800824B9847002800D1CB
:103AB0009DE06B88804A13406B80F8BD0520404232
:103AC000A6E073881BB2002B04DB6B887A4A134094
:103AD0006B80F2E76268C0239B0213436360E36973
:103AE0005B07FCD4F1E753071BD46B885B0534D527
:103AF0002A881212520006231A40E3695B07FCD49D
:103B0000636A8021C9010B401343F12213436362AE
:103B1000E3695B07FCD46B88684A13406B80002024
:103B200065E06B68002B04DD6B8880225201134333
:103B30006B806B881BB2002B06DB6B885E4A1340E0
:103B40006B800220404252E06268C0239B02134314
:103B50006360E3695B07FCD4EFE76868002811D174
:103B60006B881BB2002B04DB6B88534A13406B80BD
:103B70003DE06268C0239B0213436360E3695B0717
:103B8000FCD4F1E7AB681A782823E254E3695B07B9
:103B9000FCD4AB680133AB606B68013B6B60002009
:103BA00025E0BB0778D56B68002B6DD052076BD42E
:103BB000013B6B60002B01D100294CD0012B48D078
:103BC0006B68002B07D16B881BB2002B4CDB6B881A
:103BD000394A13406B80AA68531CAB60E3695B07EA
:103BE000FCD42823E35C13700223237600206B8827
:103BF000DB0500D461E72869314A037EDBB21F0090
:103C0000511E002A00D159E70A009B07F5D0002079
:103C1000002800D055E72368DB0E01211940E36935
:103C20005B07FCD4628B92B2FB07BAD5930700D432
:103C300059E7012323766B88802149010B436B8070
:103C40006B881D490B406B80D30722D5052040426D
:103C5000CDE70029B4D062688023DB0213436360A0
:103C6000E3695B07FCD4ABE76368134A1340636006
:103C7000E3695B07FCD46268C0239B021343636063
:103C8000E3695B07FCD4A2E70223237602204042CB
:103C9000ADE704204042AAE70020A8E70620404202
:103CA0000BE7C046E705000054AC0000A126000069
:103CB000E905000001360000FFFEFFFFFFFBFFFFEC
:103CC000FFFF000010B5024B1868024B984710BD6B
:103CD000C40300202533000070B506000C00080066
:103CE000714B98470023002B00D184E00025002E63
:103CF00000D18DE0002C00D188E001206B4A6C4996
:103D00006C4B9847002D00D1CBE0E369DB0721D451
:103D10002A786B781B021343AA7812041343EA78BB
:103D200012061A431C231A40E3699B07FCD123683F
:103D30009B0709D5236802218B432360E3699B0716
:103D4000FCD1E3699B07FCD4012313432360E3699F
:103D50009B07FCD1E369DB07FCD434602B786A78DD
:103D600012021A43AB781B041A43EB781B06134369
:103D70001C221340082B4DD0002C00D18DE0002DCB
:103D800000D188E001204C4A49494A4B98472B789A
:103D90006A7812021A43AB781B041A43EB781B06AD
:103DA0001343464A13402360E3699B07FCD12B79F8
:103DB0006A7912021A43AB791B041A43EB791B068A
:103DC00013433F4A13408022920213436360E36926
:103DD0005B07FCD12B7B23736A7B3023E2542B7966
:103DE0005B075CD101233371AA7BEB7B1B0213437E
:103DF000F380002070BD002802D00133DBB272E7EF
:103E00001D01EA182F4D5035AD1870E7002075E7F9
:103E1000002073E7002C3CD0002D38D001202A4A26
:103E20002349244B98472B786A7812021A43AB78BF
:103E30001B041A43EB781B061343204A13402360EC
:103E4000E3699B07FCD12B796A7912021A43AB799B
:103E50001B041A43EB791B0613431C4A13401C4AEC
:103E600013436360E3695B07FCD12B7A6A7A120221
:103E70001A43AB7A1B041A43EB7A1B0613436362A3
:103E80006A7B3023E254E369002BFCD1A7E70020D2
:103E9000C5E70020C3E7002075E7002073E7022391
:103EA000A1E70D204042A5E71533000052090000AC
:103EB00054AC0000A126000017090000FCFEFFFF23
:103EC000BF1DFDFFF0AB00002B090000BFDDFDFFB3
:103ED00040020200F0B5CE46474680B589B0814623
:103EE0000D0004680B6803934B680493002305934B
:103EF00006930679002814D0002C10D00120374AF0
:103F00003749384B9847E3695B0764D1E3699B07FE
:103F1000FCD123689B0720D41420404256E00020A7
:103F2000EDE70020EBE700222DE04878000247464D
:103F30000743B84602310391013205924246A2621C
:103F40005BB2002B35DB002000283ADB0598AB681C
:103F5000984202D3069A934233D9237EDBB25A07A2
:103F6000E1D5A16A049A002A08D0501C049011706F
:103F7000012E03D9901C0490090A5170069A0192EF
:103F8000013206920122002ADAD10699059A91425D
:103F9000D6D34946C888D907D2D50399002906D077
:103FA000481C039008788046012EBED8C4E780469E
:103FB000C2E701235B4263838133237613204042AF
:103FC000C2E7237E9B07FCD00323237609B00CBCF9
:103FD00090469946F0BD04204042F7E7B20A00003F
:103FE00054AC0000A12600000E4A116A090C136AA5
:103FF0009B0F9B0709040C4801400B4302210B4314
:10400000136293690B439361137F1D310B40137748
:10401000044BDB681B07FBD5024A136A80210B4364
:1040200013627047000800400000FF0F0222174B88
:104030009A84164BDB68DB06FBD5154A134BDA6214
:10404000144B1B689B0E3F2B18D09B0280229200C2
:1040500013430E4A9362104B9384938C5B0710D5E5
:104060000A4BDB68DB06FBD50C4B5B78DB09FBD12D
:10407000064A936902218B4393617047FC23DB015D
:10408000E7E7024BDB68DB06FBD5EDE70008004005
:1040900080BB01042460800026050000000C004065
:1040A00000207047124B1A68530B1F210B40900CD5
:1040B0000140D00D072202401F2B12D01F2912D021
:1040C000072A12D09B010B4312031343094A13859D
:1040D000D37803210B43D370D3780C210B43D370D7
:1040E00070471A3BEAE70239EAE7023AEAE7C046D4
:1040F000246080000050004110B5837C0F221340E3
:10410000C17C083A0A40012A0DD01A000832520137
:1041100019498C4662441021D1715B01174A9446BB
:104120006344197010BD4A060CD5C27C40218A43F5
:10413000C2741A00083252010F4CA4466244802413
:1041400014715171C27C08218A43C2745A010C490E
:10415000891800248C728C7608335B0106498C46E2
:1041600063446F21D971054B9C4662441170054B25
:104170009B6C807C9847D5E7005000410851004176
:10418000C80300204804002010B5827C0F23134090
:1041900020228A40D2B25B0105498C4663441A70E2
:1041A000044B1B6D8268807C0121984710BDC0467E
:1041B000085100414804002010B5837CFF2B02D039
:1041C000C27C520600D410BDC27C4024A243C274FB
:1041D000024A146D82681800A047F4E748040020E2
:1041E000F0B583B0847C0F232340184D2E8801AD99
:1041F0002E80FF2C1ED0C47C64061BD500291BD04A
:104200001C0008346401124DAC46644480252571BD
:1042100001AD6E5C1C00083464010D4FBC46644463
:10422000E671695C5B010B4CA44663441970110094
:10423000094B984703B0F0BD1C0008346401044DDD
:10424000AC46644440256571E2E7C04670AC0000AE
:104250000050004108510041B9410000F0B583B061
:10426000837C0F2213403C4A948801AA14805A018F
:104270003A4CA418002933D01A0008325201384DA4
:10428000525D120907251540C27C072616400A0117
:10429000A218947AE4B2022D2AD0A40744D5947AC5
:1042A0000225AC43947201AC655C1A0008325201DD
:1042B0002B4FBC466244D571625C5B01294CA4461D
:1042C00063441A70012E45D1C37C5B0642D5C37C82
:1042D000DB0999423ED000221900234B984739E070
:1042E0001A00083252011E4D555D07221540CBE7DA
:1042F000E507D2D5947A0125AC43947201AC655C94
:104300001A0008325201164EB4466244D571625CFE
:104310005B01144CA44663441A704B1E9941C9B208
:104320000422114B984715E05A00521812010B480D
:1043300082180020907201A8445C1A0008325201D1
:10434000074DAC466244D471425C5B0105498C4622
:1043500063441A7003B0F0BD70AC0000C8030020C5
:104360000050004108510041E141000070B50025B6
:1043700018E0104C4034AE0073199800103020182B
:10438000043003210C4B984772199300E31826332D
:10439000FF221A707619B300E41827340023237023
:1043A0000135EDB21A2DE4D9C02200210348044B97
:1043B000984770BD48040020B9410000C8030020A0
:1043C000F5940000F0B5C64600B505000E00837CEC
:1043D0000F241C406201564B9B18002958D0596984
:1043E0008904890C2B8A534A934253D0013B1BB258
:1043F0000B40EA7C07271740002E07D02200083226
:1044000052014D48844662440220D071AA68944605
:104410006144A9606A6891424ED292B28BB2D21ABC
:1044200092B2EB7C9B0637D52B8A98469A4200D8ED
:1044300090462B689C4661444246E8683F4B98474B
:10444000E96862013A4B9B1819616301384AD21836
:10445000516943469B049B0C890B89030B435361B1
:104460005169374B0B405361002E07D1012F5DD0AE
:104470004A22630133498C4663441A70083464014C
:104480002D4B9C4664448023637104BC9046F0BD70
:104490000021A7E71BB2ABE780239B019A4207D814
:1044A00090462B6859186201214B9B181961CCE783
:1044B00080239B019846F4E7EA7CD2060FD5EB7C7B
:1044C00010229343EB746201194B9B185A69920BAB
:1044D0009103596159691A4A0A405A61C4E7012F88
:1044E0000DD06401184A944664444A2222702A8AF4
:1044F00093420BD000212800144B9847C5E7640174
:10450000114A944664444B222270F0E7EB7C40222F
:104510009343EB740E4BDB6CA87CA968984700288A
:10452000B3D1EB7C40221343EB74E3E74E22A0E7C8
:10453000C8030020FF03000000500041E394000086
:10454000FF3F00F00951004108510041B94100000E
:1045500048040020F8B5DE4657464E464546E0B5CD
:1045600004000F00837C0F251D40002959D06A01EB
:10457000714B9B185B681B019B0C9A46002F53D014
:104580006A016D4B9B185B689B049B0C9846268ABE
:104590006A4B9E4201D0013EB6B2434633409B4631
:1045A000E37C07221A409146002F07D02B000833E6
:1045B0005B01634A944663440122DA71E37C9B0603
:1045C00011D56268002A0ED092B22389D21A92B213
:1045D0002368A1688C4663441800E168934500D2C3
:1045E0005A46584B98476368002B20D1E27CD2068C
:1045F0001DD5E37C1022934320221343E3744E49DC
:104600006A01E3685350238A8A1851689B041B0986
:104610004D4801400B43536053689B0B9903516015
:1046200047E000239A46A9E700239846AFE7002F0A
:104630001DD0228A93451AD2E37C10229343E3745F
:10464000A3684344A3604B46012B66D06B013F4AED
:104650009446634425221A70002D03D16D01364B18
:10466000E268EA5000212000394B984733E0A26805
:104670005244A2609342E6D99BB291B25B1A9BB2BC
:10468000E17C89062DD5218A8B4200D81900E0688B
:104690006B01294A98506B012748C01842688B0467
:1046A0001B0929490A401343436043689B0B9A0343
:1046B0004260002F08D14B46012B35D025226B01DB
:1046C00024498C4663441A7008356D011C4B9C4686
:1046D000654440232B713CBC90469946A246AB46AC
:1046E000F8BD218A8B420BD9802189018B420FD8DA
:1046F000B343190023689A186B010F481A50CAE790
:104700008B4208D2E17C20200143E1741900F1E7DB
:1047100080218901EEE71900ECE76B010B4A944612
:1047200063442D221A7097E76A01034B9B180022FD
:104730009A762D32C3E7C046C8030020FF0300006D
:1047400000500041E3940000FF3F00F00851004199
:10475000B94100000951004170B5894B1D8CADB2C3
:10476000002D01D00024BFE0998B1B8B0B405A0712
:104770000DD49A0515D41A0637D470221A423ED1A8
:104780001A0757D4DB0700D568E0002306E00422AF
:104790007B4B9A837B4B1B6C98470123002BE1D00A
:1047A00070BD774B784A9A839A82923AFF3A1A837D
:1047B000002301E00133DBB2042B0FD85801734A08
:1047C000121812891207120F032AF3D16F4B1B180C
:1047D00019894904490D00221A8100E00021694B22
:1047E0005B6C032098470123D8E78022644B9A83AF
:1047F000644B5B6C0021052098470123CEE7604B9A
:104800009A839A82604A1A83614B9B8C9B060CD4D4
:104810005F4BDA68D0231340D02BF9D1594B5B6C36
:104820000021022098470123B8E7594BDB68DB06DB
:10483000FBD5F3E7524B0021802252009954F83AFD
:104840009A8368329A82504A1A83524B98474D4B4A
:104850005B6C00210120984701239FE7484B4A4A9F
:104860009A839A82923AFF3A1A83464B5B6C0021F4
:1048700004209847012391E7DA0607D45A0608D4A2
:104880009B062FD50021444B98472BE0434B98477C
:1048900028E00121404B984724E05A060FD41A071C
:1048A00011D49A0713D4C17C07220A40012A19D1D6
:1048B0005A0710D4DB0615D5384B984712E0012172
:1048C000354B98470EE00121354B98470AE001210E
:1048D000344B984706E00021314B984702E0002115
:1048E0002D4B98470134E4B21A2C00D958E7254BD8
:1048F0004033A2001119880001001030181804304C
:104900005B1826331B78FF2BECD0827C0F231340DF
:1049100001229A402A42E5D01A0008325201184971
:104920008C466244D2795B011F498C4663441B78F4
:104930001340D7D0C27C4721114001299CD052B2EC
:10494000002AAADB9A06CAD45A070DD4DA070FD474
:10495000C17C07220A40012AC4D11A070CD4DB0605
:10496000C0D50E4B9847BDE700210D4B9847B9E7DE
:1049700001210E4B9847B5E70121094B9847B1E754
:10498000005000414804002001020000C80300203C
:10499000000800406D43000089410000F94000001C
:1049A0005D420000C543000009510041554500002B
:1049B00000B583B0002201AB5A70214B9B78DB0716
:1049C0001BD41F4B9B789B07FBD11D4B1B789B0770
:1049D0000CD51B4A137802218B431370184B9B781C
:1049E0009B07FBD1164B9B789B07FBD40122144BF2
:1049F0001A70134B9B789B07FBD1114B9B78DB07FD
:104A0000FBD4104B104A1A645A649A64DA641A652B
:104A10000E4B98470E4B98470422094B1A70084BCF
:104A20009B789B07FBD1064A0A4B536201AB5B782C
:104A300001210B43DBB21381002003B000BDC0464F
:104A40000050004148040020A14000006D430000D8
:104A5000A5400000C8030020104B9B789B0719D18C
:104A60000E4B9B789B07FBD10C4B1B78DBB29A0754
:104A700008D402221343DBB2084A1370074B9B7819
:104A80009B07FBD18022064B1A60064A034B1A8310
:104A90000020704711204042FBE7C0460050004113
:104AA00000E100E08D020000024A138901218B43DE
:104AB000138170470050004180235B421843C0B20D
:104AC000014B98727047C04600500041F0B5C64691
:104AD00000B50F23034044B2A446002B05D0002CA0
:104AE00001DB1C0002E05C1D00E01C002600032529
:104AF00029401F00052B00D979E0A5002D19AC0035
:104B0000A046424C4034444426342478FF2C00D044
:104B100070E0002918D1002B04D06446002C01DB82
:104B20000533DBB29C00E3189D00384B40335B1922
:104B300026331B78FF2B60D17B00DB199C00344BA4
:104B40001B199B68002B5BD06346002B36DB7B0078
:104B5000DB199C002E4B1B199B685C1EA341DBB22A
:104B6000002B0AD06346002B32DB7B00DB199C0054
:104B7000274B1B191B8A934245DB6346002B2EDB18
:104B80007B00DF19BC00224B1B199B689C461F4B06
:104B9000B500AF19BC001C19674627664033AF1932
:104BA000BC0027001C19A284013127342170DB19B5
:104BB00026331870002004BC9046F0BD7B00DB1942
:104BC0009C00134B1B19DB685C1EA341DBB2C7E7DB
:104BD0007B00DB199C000E4B1B195B8ACBE77B002B
:104BE000DF19BC000A4B1B19DB689C46CFE712207B
:104BF0004042E0E714204042DDE714204042DAE77B
:104C000013204042D7E713204042D4E74804002055
:104C100070AC0000F8B504000F25054047B2FB0F4B
:104C20009C46002D05D0002F01DB2A0002E06A1D02
:104C300000E02A00160093009B18990010312348C9
:104C4000403040180430052D30D893009A18910058
:104C50001E4B40335B1826331B78FF2B26D00322D4
:104C600061461B4B9847B20092199100174B5B1895
:104C70006033DA7907231340012B18D0002F1CDB97
:104C8000144A08346401A35C07218B43A3540F4BDF
:104C90004033B100881982009A1827320020107022
:104CA0008E19B2009B182633FF221A70F8BD083403
:104CB00064010022074BE254E9E7064A08356D011A
:104CC000AB5C70218B43AB54E1E7C0464804002045
:104CD000E141000000500041F0B50F23034040B215
:104CE000002B05D0002801DB1E0002E05E1D00E065
:104CF0001E0034001A0008325201B449555CEDB26E
:104D0000052B00D952E1B10089198E00B04A40321A
:104D1000921926321278FF2A00D14AE15A01AD4E8B
:104D2000B618A10009198F00A94AD2196032D179A9
:104D300007220A40012A37D0002800DACDE06A07AE
:104D400000D03FE1A24AA0000719B9005118603114
:104D5000C9794907490F0D431900083149019B4F93
:104D6000CD5540320419A1005218908C82039A4903
:104D70000A4080218900884200D9FAE00139FF39D0
:104D8000884200D908E1802800D907E1402800D9ED
:104D900006E1202800D905E1102800D904E1F839FE
:104DA000814289414942E5E076322A4200D003E15E
:104DB0001A0008325201112084495054844A40326A
:104DC000D219928C91038448014080208000824255
:104DD00010D80138FF38824227D8802A27D8402AA5
:104DE00027D8202A27D8102A27D8F838904280417F
:104DF000404200E007200007014371609104890CE4
:104E00008020800082421AD80138FF3882425AD866
:104E1000802A5AD8402A5AD8202A5AD8102A5AD832
:104E2000F8389042924152420AE00620E3E705201A
:104E3000E1E70420DFE70320DDE70220DBE70722CC
:104E400012070A4372611A00083252015F498C4608
:104E5000624440215171802010715E4D5B01EB185E
:104E600000229A729A765A4806004036A200171914
:104E7000BB00F31826331B780F273B401719BF00E0
:104E8000BC46C019076E580147516246B618B28C2D
:104E90002C18656892041209504E35402A4362600E
:104EA0006268920B9503656008335B01474A94463C
:104EB0006344B0221A715971494B9C4660441023D7
:104EC0000370002067E00622BAE70522B8E7042253
:104ED000B6E70322B4E70222B2E770222A4200D0EA
:104EE0006DE03B49A0000719BA008A186032D279F8
:104EF0005207520E15431A0008325201334FD5554E
:104F000040310419A2008918898C8A04920C8020EF
:104F10008000814210D80138FF3881421FD8802993
:104F20001FD840291FD820291FD810291FD8F8388A
:104F300088428941494200E0072109070A4372611A
:104F40001A000832520121498C46624480211171B5
:104F50005A01204B9B1800229A7600201BE0062164
:104F6000EBE70521E9E70421E7E70321E5E7022173
:104F7000E3E7072109070A4372601A000832520169
:104F800012498C466244402151715B01114AD31889
:104F900000229A720020F0BD0621EBE70521E9E727
:104FA0000421E7E70321E5E70221E3E7122040427D
:104FB000F1E712204042EEE714204042EBE71420D4
:104FC0004042E8E714204042E5E7C0460050004177
:104FD00048040020C803002000C0FF0FFF3F00F07E
:104FE00009510041F0B50F22024040B2C40F002A1F
:104FF00005D0002801DB130002E0531D00E0130080
:105000001D009800C018830010331800474B403330
:105010001B180433052A00D984E0012918D000297F
:105020003DD0AA0052199100404B40335B18263303
:105030001A780F23134008335B013D4A94466344BA
:1050400098791023A3401840431E9841C0B2F0BD88
:10505000364803004033AA005619B1005B182633C6
:105060001B780F210B401026A640F6B2190008311C
:1050700049012F4FBC4661444E712021A140CCB262
:1050800059012C4B9C4661440C7052199300C31873
:105090006033DA7908210A43DA710020D7E79A7C75
:1050A0000F310A401100083149012148844661440A
:1050B00088791021A140084224D0C9B210000830DC
:1050C0004001604401712021A140CEB255011A4F28
:1050D000BC4665442E70C07908420AD011000831E0
:1050E0004901134884466144CE710120A040C0B2FA
:1050F0000871D87C07210140012905D0DA7C0821FC
:105100008A43DA740020A2E70832520108498C462B
:105110006244917930221142F4D1020008218A437D
:10512000DA74EFE71220404291E7C04648040020BD
:1051300000500041095100410851004170B50E0076
:105140000F2404406201184B9B1819685D68AD0478
:10515000AD0C052C1FD8002E20D0230008335B0196
:10516000124A9B5C112B1CD1230008335B0194462F
:105170006344DB79DB0601D4002070BD08223000D7
:105180000B4B984708346401084B9C466444102339
:10519000E3712800F1E712204042EEE7122040427E
:1051A000EBE713204042E8E7C8030020005000412D
:1051B000E3940000F0B5DE4657464E464546E0B55E
:1051C00085B08046057A0F222A406DB2EB0F9946D2
:1051D000002A05D0002D01DB100002E0501D00E088
:1051E00010000600604B403381000F18BC001034E3
:1051F0001C190434B8001B189B8C5C498B4242D0AC
:105200005F1EBFB2414649680F40052A00D9A1E0A0
:1052100042461268564882420CD988180190554877
:1052200084460198604505D8920703D1002D2CDBF8
:1052300099422DD2B3009B199A004B4B9B181B6EC1
:10524000002B00D189E001230193002D0ADB002F00
:1052500008D0B3009B199A00434B9B181B6E002B80
:1052600000D17DE0B200921991003F4B5B18603392
:10527000DB791B070FD5022005B03CBC9046994650
:10528000A246AB46F0BD1F00BCE700230193DCE75C
:1052900000230193D9E703A8374B9847B20092192E
:1052A0009100314B5B186033DB795B0630D4B3007F
:1052B0009B199A002C4B9B46934460235B449A466F
:1052C000DB79402213435246D37103A82B4B9847F6
:1052D0005B46424612685A65424652689A65002308
:1052E0005A46D3654B46DB015246D2797F211140A5
:1052F000019A52010B4320218B431A435346DA7122
:1053000043465B7A002B08D0002F1BD0002205E01B
:1053100003A81A4B98470120AEE70022B3009E195C
:10532000B100114B5B1860331101DA791020824310
:105330000A43DA71002D07DB00212000104B98474B
:10534000002099E70122E9E7002120000D4B984752
:10535000002091E7122040428EE7132040428BE765
:105360001220404288E7C04648040020FF030000A6
:10537000FFFFFF1FFF7F0020711200007F1200005F
:1053800055450000C5430000002906D0012806D07D
:10539000002801D1034B196470470349F6E7014B1C
:1053A0005964F9E748040020A1400000002908D012
:1053B000002808D0012809D0022806D1054B19651C
:1053C00003E00549F4E7034B99647047014BD96446
:1053D000FBE7C04648040020A140000010B5014B87
:1053E000984710BD59470000024B1A7B5A73187337
:1053F0007047C0463C0A002010B5244B9B78002B18
:1054000040D0234B1B88002B3CD13222204B1A80EA
:105410001E4A538B01339BB25383528A934204D367
:105420001A49088B098A884204D01849088B098ACE
:10543000884202D9012015494870934209D9134B7B
:105440005B78002B05D1114B1A8B01321A83012294
:105450005A830E4B9B8A002B15D01900002B06D0C7
:105460000A4B188B01380B4B984700290AD1074B80
:10547000DB8A002B03D0054A528B934202D10122D2
:10548000024B5A7110BD0121E8E7C0463C0A0020DA
:10549000000000201D94000010B5074B5B88002B16
:1054A00000D010BD0548064B9847C822024B5A80D1
:1054B000C73A044B1A70F4E70000002044DB0000F8
:1054C000F99500004007002070B5044CA21C02238F
:1054D0000348044DA8470123237170BD40070020F5
:1054E0001C0900207111000010B5064B1B79002B20
:1054F00000D110BD0022034B1A710348034B98479B
:10550000F7E7C046400700201C09002049120000B0
:1055100070B5874BDB88002B12D1854B1B89002B84
:1055200000D0A8E0834B1B88002B00D1CBE0824A3F
:10553000D27A002A00D0B2E000227E4B1A8010E01E
:105540007E4AD31A5B007E4A9B5A7E4A938004327D
:10555000012300217C487D4CA047754AD388013B3C
:10556000D380784B9B79002B00D0CDE00722754B80
:105570009A716F4B9B7A002B00D1C9E0013B6C4ABA
:1055800093726B4B9B89002B02D0013B684A93813D
:105590006C4B1B88002B02D0013B6A4A1380694B7D
:1055A0001B89002B02D0013B664A1381654B5B8847
:1055B000002B02D0013B634A53805F4BDB78002B0A
:1055C00000D1A4E05A4AD38901339BB2D381148A13
:1055D0000134A4B21482584A128C934234D300226C
:1055E000534BDA81544A538B528A93422CD2013363
:1055F0009DB2514B5D83AA4203D81A8B1B8A9A42F3
:1056000004D04D4B1A8B1B8A9A4202D901224A4B75
:105610005A70494B9B8A002B00D187E01900002B60
:1056200006D0454B188B0138494B984700290BD1C0
:10563000414BDB8A002B01D09D4205D101223E4B1C
:105640005A71444A444B1A803B4B5B6A9C425ED37E
:10565000374B00221A82DA81374A138B01339BB20F
:105660001383128A934202D90122334B5A700022CB
:10567000314B5A834BE0BC225200D31A5B00374AAD
:10568000D3189B882F4A93800432012300212E488F
:105690002E4CA047264A1389013B138161E7304A0B
:1056A000D31A5B002F4AD31874229B5A254A938041
:1056B0000432012300212448244CA0471D4A1388AA
:1056C000013B13804DE7244B1B88002B00D148E79A
:1056D000194A927A002A03D100221F4B1A8040E710
:1056E0001C4AD31A5B00204AD3186C229B5A154AD5
:1056F00093800432012300211348144CA047164A1A
:105700001388013B13802CE7013B0E4A937170BD57
:105710000522074B9A72154B1B88F422FF329342E5
:1057200000D92EE70133114A13802AE7012176E7D9
:1057300040070020840100203C0A0020820C000069
:1057400014AE000000000020480900208113000072
:105750001D940000D60300008201002014C7000041
:105760007C04000094C9000094D200008001002055
:10577000F0B5D64600B584B0454F798A03914548C7
:10578000454DA84703AC02232200F8218902434873
:10579000434EB246B047217862784248A8470A2073
:1057A000414EB047398A03914048A847022322005E
:1057B0003F493A48D047217862783E48A8470A20B6
:1057C000B047F98A03913C48A847022322003B498D
:1057D0003248D047217862783948A8470A20B04734
:1057E000B98A03913748A8470223220036492B483B
:1057F000D047217862783548A8470A20B047398CCD
:1058000003913348A8470223220032492348D04756
:10581000217862783048A8470A20B0477B6A029313
:1058200019002E48A847042302AA2D491B48D04737
:105830006B46197A5A7A9B7A6846C07A0090294852
:10584000A8470A20B047B97A0902FB7AC918039120
:105850002548A8470223220024491048D0476178F0
:1058600022782348A8470A20B047F98903912148A4
:10587000A8470223220020490848D04721786278AF
:105880001E48A8470A20B04704B004BC9246F0BDA9
:105890003C0A002054DB00000595000000090020B0
:1058A0009D16000074DB0000FD1300009CDB00006F
:1058B00002E00300BCDB0000E4DB000004E00300C6
:1058C00008DC000030DC000006E0030054DC0000CF
:1058D0007CDC000008E003009CDC0000C4DC00006D
:1058E0000AE00300E0DC000008DD00000EE0030039
:1058F00034DD000068DD000010E0030088DD0000FA
:10590000F8B57448744B9847744C22001432022343
:10591000F82189027248734DA847217D637D1B02DF
:10592000C91889B2704C61827048714B9847638A7C
:10593000013B9BB26F4A934202D919226A4B5A82A9
:10594000664C2200143202236B496548654DA84716
:10595000217D637D1B02C91889B2634C218267488F
:10596000634B9847238A013B9BB2654A934202D915
:1059700064225D4B1A82594C220014320223614981
:105980005748584DA847217D637D1B02C91889B22D
:10599000554CE1825C48564B9847E28A5B4B9A42F1
:1059A00002D90022504BDA824C4C220014320223DE
:1059B00057494B484B4DA847217D637D1B02C918B1
:1059C00089B2494CA1825348494B9847A28A524B0D
:1059D0009A4202D90022444B9A82404C220014324F
:1059E00002234E493E483F4DA847217D637D1B025F
:1059F000C91889B23C4C218449483D4B9847238CB7
:105A0000643B9BB2474A934202D96422364B1A84C4
:105A1000324C22001432042343493148314DA84707
:105A2000217D637D1B02C918A37D1B04C918E37D7A
:105A30001B06C9182C4C61623C482D4B9847228CA0
:105A4000638A53433A4A934200D91300264A526A62
:105A5000934201D9244A5362234B5A6A344B9A42E7
:105A600002D91A00204B5A621C4C22001432022325
:105A700030491B481B4DA847637D002B22D00122D3
:105A8000194B9A72154B1B7D002B1FD00122164B10
:105A9000DA72154CA17AE27A2748154DA8470F4EC5
:105AA00032001432022325490D480E4FB847317D8C
:105AB000E1812348A847E3897F2B02D940220A4B82
:105AC000DA81F8BD0022084B9A72DBE70022064B10
:105AD000DA72DEE7B0DD0000F99500004007002033
